:020000040800F2
:1000000000500020A10A0008E1090008ED090008DD
:10001000F3090008F9090008FF09000800000000C2
:10002000000000000000000000000000915C0008DB
:10003000050A000800000000615E0008A95E0008D3
:10004000E90A0008E90A0008E90A0008E90A0008C4
:10005000E90A0008E90A0008E90A0008E90A0008B4
:10006000E90A0008E90A0008E90A0008E90A0008A4
:10007000E90A0008E90A0008110A0008E90A00086C
:10008000E90A0008E90A0008E90A0008E90A000884
:10009000E90A0008E90A0008E90A0008E90A000874
:1000A000E90A0008E90A0008E90A0008E90A000864
:1000B000E90A0008E90A0008250A0008E90A000818
:1000C000E90A0008E90A0008E90A0008E90A000844
:1000D000E90A0008E90A0008E90A0008E90A000834
:1000E000E90A0008E90A0008E90A0008000000001F
:1000F0000000000000000000000000000000000000
:0C01000000000000000000005FF808F1A3
:1001100010B5054C237833B9044B13B10448AFF341
:1001200000800123237010BD10000020000000009B
:10013000BC63000808B5034B1BB103490348AFF388
:10014000008008BD0000000014000020BC6300080F
:1001500080B582B000AF00F0C9FC00F03DF800F0BF
:1001600081F900F061F900F07DF800F0BFF800F0CF
:1001700031F900F0C3F9114802F0DBFC04210F480B
:1001800002F052FD0D4B1B6832225A6303F04AFC09
:100190000B4A00210B4803F0ABFC02460A4B1A60E5
:1001A0000A4A00210A4803F0A3FC0246094B1A60E0
:1001B00003F06AFC00237B60FEE700BF241A0020E6
:1001C0001064000895060008641A002034640008D2
:1001D000E10600088C19002080B590B000AF07F14F
:1001E000180328220021184606F0DFF83B1D0022E4
:1001F0001A605A609A60DA601A610123BB614FF499
:100200008033FB6100233B620123BB6202237B63DB
:100210004FF48033BB634FF4E013FB6307F1180323
:10022000184602F00FF80346002B01D000F070FAD8
:100230000F237B600223BB600023FB604FF48063CD
:100240003B6100237B613B1D0221184602F07AFAD4
:100250000346002B01D000F05BFA00BF4037BD46DB
:1002600080BD000080B500AF124B134A1A60114BDD
:10027000124A5A600F4B00229A600E4B0022DA603D
:100280000C4B4FF480421A610A4B00225A61094B11
:1002900000229A61074B0022DA61064B00221A62A3
:1002A000044801F041F80346002B01D000F030FA79
:1002B00000BF80BD3819002000580040A086010012
:1002C00080B584B000AF02233B6002237B60002333
:1002D000BB600223FB603B461946034800F09AFED0
:1002E00000BF1037BD4680BD0008014080B58EB00C
:1002F00000AF07F1280300221A605A609A60DA60A2
:1003000007F1200300221A605A603B1D00221A6088
:100310005A609A60DA601A615A619A612C4B4FF008
:1003200080421A602A4B47225A60294B00229A6069
:10033000274B6322DA60264B00221A61244B0022ED
:100340009A61234802F0CAFB0346002B01D000F05B
:10035000DFF94FF48053BB6207F1280319461C48AC
:1003600002F062FE0346002B01D000F0D1F91848DC
:1003700002F025FC0346002B01D000F0C9F9002350
:100380003B6200237B6207F120031946104803F00B
:10039000CBF90346002B01D000F0BAF960237B6053
:1003A0000023BB600023FB6000237B613B1D042214
:1003B0001946074802F072FD0346002B01D000F0F9
:1003C000A7F9FFF77DFF00BF3837BD4680BD00BFEE
:1003D000241A002080B500AF114B124A1A60104B4E
:1003E0004FF4E1325A600E4B00229A600C4B00220F
:1003F000DA600B4B00221A61094B0C225A61084B40
:1004000000229A61064B0022DA61054803F0E2F906
:100410000346002B01D000F07BF900BF80BD00BF78
:10042000DC1900200038014080B582B000AF0C4BD1
:100430005B690B4A43F001035361094B5B6903F0AD
:1004400001037B607B68002205210E2000F057FC31
:100450000E2000F070FC00BF0837BD4680BD00BF15
:100460000010024080B588B000AF07F110030022F1
:100470001A605A609A60DA601E4B9B691D4A43F00D
:10048000200393611B4B9B6903F02003FB60FB6817
:10049000184B9B69174A43F004039361154B9B6902
:1004A00003F00403BB60BB68124B9B69114A43F025
:1004B000080393610F4B9B6903F008037B607B6823
:1004C00000224FF440710C4800F0FEFE4FF44073E0
:1004D0003B6101237B610023BB610223FB6107F1C8
:1004E00010031946044800F095FD00BF2037BD46B3
:1004F00080BD00BF00100240000C014080B586B0F6
:1005000004AF4FF47A73029301230193FB1D009310
:10051000012375226821294801F028F90023BB71C5
:10052000FB79682B41D10023BB714FF47A7302939E
:1005300001230193BB1D009301236B2268211F48F7
:1005400001F01AF80723BB714FF47A730293012369
:100550000193BB1D0093012319226821174801F064
:100560000BF80023BB714FF47A73029301230193BC
:10057000BB1D009301231C226821104800F0FCFFE2
:100580000023BB714FF47A73029301230193BB1DC7
:10059000009301231B226821084800F0EDFF01228F
:1005A0004FF40071064800F08FFEFB79184600F00A
:1005B00009F800BF0837BD4680BD00BF38190020CC
:1005C000000C014080B584B000AF0346FB710022EF
:1005D0004FF400712E4800F077FE00224FF4807136
:1005E0002B4800F071FE4FF47A7000F0B1FA01224E
:1005F0004FF40071264800F067FE01224FF480712D
:10060000234800F061FE4FF47A7000F0A1FA002355
:10061000FB601FE04FF480711D4800F06DFEFA7919
:10062000FB6842FA03F303F00103002B06D1012219
:100630004FF40071164800F047FE05E000224FF429
:100640000071134800F040FE962000F081FAFB682C
:100650000133FB60FB68072BDCDD0023BB600AE095
:100660004FF480710A4800F047FE192000F070FA3C
:10067000BB680133BB60BB680E2BF1DD01224FF478
:100680008071034800F020FE00BF1037BD4680BDDA
:10069000000C014080B584B000AF78600023FB609F
:1006A000FB68642B0FDC0C4B1B68FA685A63FB6811
:1006B0000A33FB604FF48071084800F01DFE64208F
:1006C00003F0C0FAECE70023FB604FF4007103482D
:1006D00000F012FEE4E700BF241A0020000C0140E5
:1006E00080B483B000AF7860FEE7000080B582B0D0
:1006F00000AF78607B681B68044A934201D100F028
:100700000BFA00BF0837BD4680BD00BF000800409F
:1007100080B400AF00BFBD4680BC704780B584B0D8
:1007200000AF184B9B69174A43F001039361154BC7
:100730009B6903F00103BB60BB68124BDB69114A84
:1007400043F08053D3610F4BDB6903F080537B6030
:100750007B6800220F216FF0010000F0D0FA0A4BF5
:100760005B68FB60FB6823F0E063FB60FB6843F0C1
:100770008063FB60044AFB68536000BF1037BD46CE
:1007800080BD00BF001002400000014080B588B06D
:1007900000AF786007F1100300221A605A609A6077
:1007A000DA607B681B68164A934224D1154B9B691B
:1007B000144A43F008039361124B9B6903F008034A
:1007C000FB60FB684FF440633B6112237B610323B2
:1007D000FB6107F1100319460B4800F01BFC094BA5
:1007E000DB69084A43F48003D361064BDB6903F4F9
:1007F0008003BB60BB6800BF2037BD4680BD00BF23
:100800000058004000100240000C014080B485B048
:1008100000AF78607B681B68B3F1804F0BD1084B49
:10082000DB69074A43F00103D361054BDB6903F041
:100830000103FB60FB6800BF1437BD4680BC7047F6
:100840000010024080B588B000AF786007F1100357
:1008500000221A605A609A60DA607B681B682F4A2F
:10086000934257D12E4B9B692D4A43F480439361A9
:100870002B4B9B6903F48043FB60FB68284B9B690F
:10088000274A43F004039361254B9B6903F004035B
:10089000BB60BB684FF400733B6102237B610323A1
:1008A000FB6107F1100319461E4800F0B3FB4FF43B
:1008B00080633B6100237B610023BB6107F1100370
:1008C0001946184800F0A6FB174B184A1A60164B39
:1008D00010225A60144B00229A60134B8022DA6077
:1008E000114B00221A61104B00225A610E4B00225C
:1008F0009A610D4B0022DA610B4800F02BFA034697
:10090000002B01D0FFF704FF7B68074A1A63064AF1
:100910007B68536200BF2037BD4680BD0038014070
:1009200000100240000801409419002044000240D9
:1009300080B58CB000AF78600023FB620023BB62FF
:10094000002279681E2000F0DAF91E2000F0F3F989
:100950001F4BDB691E4A43F00403D3611C4BDB6968
:1009600003F00403FB60FB6807F1100207F11403B6
:100970001146184602F064F802F03AF803465B00AC
:10098000FB62FB6A134AA2FB03239B0C013BBB6285
:10099000114B124A1A60104B40F2E732DA600E4AED
:1009A000BB6A53600C4B00221A610B4B00229A6009
:1009B000094802F093F80346002B04D1064802F0E0
:1009C000DBF8034600E0012318463037BD4680BD02
:1009D0000010024083DE1B436C1A00200008004018
:1009E00080B400AF00BFBD4680BC704780B400AF8C
:1009F000FEE780B400AFFEE780B400AFFEE780B44E
:100A000000AFFEE780B400AF00BFBD4680BC7047BA
:100A100080B500AF024800F0F7F900BF80BD00BF0D
:100A20009419002080B500AF024802F02FF900BFF2
:100A300080BD00BF6C1A002080B400AF154B1B684E
:100A4000144A43F001031360124B5A681149124BC8
:100A500013404B600F4B1B680E4A23F0847323F442
:100A6000803313600B4B1B680A4A23F48023136006
:100A7000084B5B68074A23F4FE035360054B4FF4B1
:100A80001F029A60054B4FF000629A6000BFBD469E
:100A900080BC7047001002400000FFF800ED00E04D
:100AA000002103E00B4B5B58435004310A480B4BC9
:100AB00042189A42F6D30A4A02E0002342F8043B65
:100AC000084B9A42F9D3FFF7B7FF05F03FFCFFF759
:100AD0003FFB7047786400080000002010000020F1
:100AE00010000020F01A0020FEE7000080B500AFE3
:100AF000084B1B68074A43F010031360032000F003
:100B0000F3F80020FFF714FFFFF708FE0023184654
:100B100080BD00BF0020024080B400AF054B1B78B1
:100B20001A46054B1B681344034A136000BFBD46B9
:100B300080BC704708000020AC1A002080B400AFD1
:100B4000024B1B681846BD4680BC7047AC1A00209B
:100B500080B584B000AF7860FFF7F0FFB8607B68C5
:100B6000FB60FB68B3F1FF3F05D0094B1B781A46C9
:100B7000FB681344FB6000BFFFF7E0FF0246BB6861
:100B8000D31AFA689A42F7D800BF1037BD4680BD25
:100B90000800002080B485B000AF78607B6803F067
:100BA0000703FB600C4BDB68BB60BA684FF6FF03C2
:100BB0001340BB60FB681A02BB68134343F0BF637A
:100BC00043F40033BB60044ABB68D36000BF1437F2
:100BD000BD4680BC704700BF00ED00E080B400AFB0
:100BE000044BDB681B0A03F007031846BD4680BCB4
:100BF000704700BF00ED00E080B483B000AF034653
:100C0000FB7197F90730002B0BDBFB7903F01F0218
:100C1000064997F907305B09012000FA02F241F812
:100C2000232000BF0C37BD4680BC704700E100E0C8
:100C300080B483B000AF03463960FB7197F9073089
:100C4000002B0ADB3B68DAB20C4997F90730120136
:100C5000D2B20B4483F800230AE03B68DAB20849B9
:100C6000FB7903F00F03043B1201D2B20B441A7656
:100C700000BF0C37BD4680BC704700BF00E100E0FC
:100C800000ED00E080B489B000AFF860B9607A6030
:100C9000FB6803F00703FB61FB69C3F10703042B47
:100CA00028BF0423BB61FB690433062B02D9FB690F
:100CB000033B00E000237B614FF0FF32BB6902FA87
:100CC00003F3DA43BB681A407B699A404FF0FF3167
:100CD0007B6901FA03F3D9437B680B401343184641
:100CE0002437BD4680BC704780B582B000AF7860C5
:100CF0007868FFF74FFF00BF0837BD4680BD80B55D
:100D000086B000AF0346B9607A60FB7300237B6155
:100D1000FFF764FF78617A68B9687869FFF7B2FF16
:100D2000024697F90F3011461846FFF781FF00BFC2
:100D30001837BD4680BD80B582B000AF0346FB7159
:100D400097F907301846FFF757FF00BF0837BD4631
:100D500080BD000080B485B000AF78600023FB60E8
:100D60007B68002B01D1012343E07B681B681A4696
:100D7000224B1344224AA2FB03231B099A007B68DF
:100D80001A647B681F4ADA637B68022283F8212099
:100D90007B681B681B68FB60FB6823F47F5323F0B0
:100DA0003003FB607B685A687B689B681A437B68EA
:100DB000DB681A437B681B691A437B685B691A43CB
:100DC0007B689B691A437B68DB691343FA681343AA
:100DD000FB607B681B68FA681A607B6800229A6374
:100DE0007B68012283F821207B68002283F8202081
:100DF000002318461437BD4680BC7047F8FFFDBF7E
:100E0000CDCCCCCC0000024080B584B000AF78607F
:100E10007B68DB6B1B68FB607B681B681B68BB60C7
:100E20007B681B6C04229A40FB681340002B4FD058
:100E3000BB6803F00403002B4AD07B681B681B6867
:100E400003F02003002B07D17B681B681A687B68BE
:100E50001B6822F004021A607B681B68664A934292
:100E600029D07B681B68654A934222D07B681B6847
:100E7000634A93421AD07B681B68624A934212D03D
:100E80007B681B68604A93420AD07B681B685F4A94
:100E9000934202D14FF480030EE04FF080630BE0E9
:100EA0004FF4802308E04FF4804305E04FF4806363
:100EB00002E0402300E00423554A53607B68DB6A6C
:100EC000002B00F094807B68DB6A786898478EE09E
:100ED0007B681B6C02229A40FB681340002B56D0A3
:100EE000BB6803F00203002B51D07B681B681B68B2
:100EF00003F02003002B0BD17B681B681A687B680A
:100F00001B6822F00A021A607B68012283F8212004
:100F10007B681B68384A934229D07B681B68374A34
:100F2000934222D07B681B68354A93421AD07B6873
:100F30001B68344A934212D07B681B68324A934242
:100F40000AD07B681B68314A934202D14FF40013E8
:100F50000EE04FF000730BE04FF4003308E04FF465
:100F6000005305E04FF4007302E0202300E0022369
:100F7000274A53607B68002283F820207B689B6AA5
:100F8000002B34D07B689B6A786898472FE07B6899
:100F90001B6C08229A40FB681340002B28D0BB68CA
:100FA00003F00803002B23D07B681B681A687B685A
:100FB0001B6822F00E021A607B681A6C7B68DB6B80
:100FC000012101FA02F25A607B6801229A637B6870
:100FD000012283F821207B68002283F820207B688F
:100FE0001B6B002B04D07B681B6B7868984700BF95
:100FF00000BF1037BD4680BD080002401C00024003
:101000003000024044000240580002406C000240A0
:101010000000024080B48BB000AF786039600023DC
:101020007B6200233B6227E101227B6A02FA03F321
:10103000FB613B681B68FA691340BB61BA69FB69D5
:101040009A4240F016813B685B68122B34D0122B19
:101050000DD8022B2BD0022B04D8002B31D0012B22
:101060001CD048E0032B43D0112B1BD043E0894A0E
:10107000934226D0874A934206D8874A934220D08B
:10108000864A93421DD036E0854A934219D0854A5C
:10109000934216D0844A934213D02CE03B68DB681D
:1010A0003B6228E03B68DB6804333B6223E03B683B
:1010B000DB6808333B621EE03B68DB680C333B6255
:1010C00019E03B689B68002B02D104233B6212E0CD
:1010D0003B689B68012B05D108233B627B68FA695A
:1010E0001A6108E008233B627B68FA695A6102E0F2
:1010F00000233B6200BFBB69FF2B01D87B6801E086
:101100007B6804337B61BB69FF2B02D87B6A9B0041
:1011100002E07B6A083B9B003B617B691A680F21F8
:101120003B6901FA03F3DB431A40396A3B6901FA70
:1011300003F31A437B691A603B685B6803F08053D2
:10114000002B00F09680594B9B69584A43F00103ED
:101150009361564B9B6903F00103BB60BB68544A23
:101160007B6A9B08023352F82330FB607B6A03F0F2
:1011700003039B000F2202FA03F3DB43FA681340D8
:10118000FB607B684B4A934213D07B684A4A934288
:101190000DD07B68494A934207D07B68484A934206
:1011A00001D1032306E0042304E0022302E001232B
:1011B00000E000237A6A02F0030292009340FA688A
:1011C0001343FB603A497B6A9B080233FA6841F893
:1011D00023203B685B6803F48033002B06D0394B37
:1011E0001A683849BB6913430B6006E0354B1A682F
:1011F000BB69DB43334913400B603B685B6803F416
:101200000033002B06D02F4B5A682E49BB6913437D
:101210004B6006E02B4B5A68BB69DB4329491340FE
:101220004B603B685B6803F48013002B06D0254BB2
:101230009A682449BB6913438B6006E0214B9A6886
:10124000BB69DB431F4913408B603B685B6803F459
:101250000013002B06D01B4BDA681A49BB691343F5
:10126000CB6006E0174BDA68BB69DB4315491340D6
:10127000CB607B6A01337B623B681A687B6A22FA27
:1012800003F3002B7FF4D0AE00BF2C37BD4680BCEB
:10129000704700BF00002110000011100000121064
:1012A0000000311000003210000022100010024037
:1012B0000000014000080140000C01400010014006
:1012C000001401400004014080B483B000AF786096
:1012D0000B467B8013467B707B78002B03D07A888B
:1012E0007B681A6103E07B881A047B681A6100BF7F
:1012F0000C37BD4680BC704780B483B000AF7860C7
:101300000B467B807B68DA687B881340002B03D018
:101310007A887B685A6102E07A887B681A6100BF2C
:101320000C37BD4680BC704780B584B000AF786094
:101330007B68002B01D101230FE17B6893F83D30DE
:10134000DBB2002B06D17B68002283F83C20786852
:10135000FFF71CFA7B68242283F83D207B681B681A
:101360001A687B681B6822F001021A6001F040FBDA
:10137000F8607B685B687B4A934207D8FB687A4ACF
:10138000934294BF01230023DBB206E0FB68774A57
:10139000934294BF01230023DBB2002B01D0012331
:1013A000DBE0FB68724AA2FB03239B0CBB607B68FB
:1013B0001B685B6823F03F017B681B68BA680A43BF
:1013C0005A607B681B681B6A23F03F017B685B687F
:1013D000644A934202D8BB68013309E0BB684FF40A
:1013E000967202FB03F3634AA2FB03239B090133BA
:1013F0007A6812680B4313627B681B68DB6923F40D
:101400004F4222F0FF027B685B6856498B420DD841
:10141000FB68591E7B685B685B00B1FBF3F301332B
:10142000C3F30B03042B38BF04234FE07B689B6896
:10143000002B11D1FB68581E7B6859680B465B0076
:101440000B44B0FBF3F30133C3F30B03002B0CBFCE
:1014500001230023DBB212E0FB68581E7B68596849
:101460000B469B000B4499000B44B0FBF3F3013394
:10147000C3F30B03002B0CBF01230023DBB2002BB3
:1014800001D0012322E07B689B68002B0ED1FB6812
:10149000581E7B6859680B465B000B44B0FBF3F3A6
:1014A0000133C3F30B0343F400430FE0FB68581E02
:1014B0007B6859680B469B000B4499000B44B0FBBA
:1014C000F3F30133C3F30B0343F440437968096832
:1014D0001343CB617B681B681B6823F0C0017B68EA
:1014E000DA697B681B6A1A437B681B680A431A60C7
:1014F0007B681B689B6823F4034323F0FF037A682F
:1015000011697A68D26811437A6812680B43936054
:101510007B681B68DB6823F0FF017B685A697B6886
:101520009B691A437B681B680A43DA607B681B6807
:101530001A687B681B6842F001021A607B6800220F
:101540001A647B68202283F83D207B6800221A639E
:101550007B68002283F83E20002318461037BD46E2
:1015600080BD00BFA08601007F841E00FF083D00F3
:1015700083DE1B43D34D621080B588B002AFF860A4
:10158000084611461A4603467B810B463B811346AB
:10159000FB80FFF7D3FA7861FB6893F83D30DBB24C
:1015A000202B40F0D9807B690093192301226D49DB
:1015B000F86800F06BFC0346002B01D00223CCE05E
:1015C000FB6893F83C30012B01D10223C5E0FB6896
:1015D000012283F83C20FB681B681B6803F00103B1
:1015E000012B07D0FB681B681A68FB681B6842F078
:1015F00001021A60FB681B681A68FB681B6822F40A
:1016000000621A60FB68212283F83D20FB684022BB
:1016100083F83E20FB6800221A64FB683A6A5A622B
:10162000FB68BA8C5A85FB685B8D9AB2FB681A8599
:10163000FB684D4ADA62F8883A8979897B690193B7
:10164000BB6A00930346F86800F0C6FA0346002B15
:1016500052D0012381E07A69B96AF86800F0ECFCA5
:101660000346002B0DD0FB681B6C042B07D1FB68D5
:101670001B681A68FB681B6842F400721A60012339
:101680006BE0FB685B6A1A78FB681B681A61FB6891
:101690005B6A5A1CFB685A62FB681B8D013B9AB25D
:1016A000FB681A85FB685B8D9BB2013B9AB2FB68B5
:1016B0005A85FB681B685B6903F00403042B1BD18C
:1016C000FB681B8D002B17D0FB685B6A1A78FB68E0
:1016D0001B681A61FB685B6A5A1CFB685A62FB68EC
:1016E0001B8D013B9AB2FB681A85FB685B8D9BB230
:1016F000013B9AB2FB685A85FB681B8D002BAAD16F
:101700007A69B96AF86800F0D8FC0346002B0DD05E
:10171000FB681B6C042B07D1FB681B681A68FB680D
:101720001B6842F400721A60012316E0FB681B6814
:101730001A68FB681B6842F400721A60FB6820227A
:1017400083F83D20FB68002283F83E20FB680022DE
:1017500083F83C20002300E0022318461837BD46DA
:1017600080BD00BF020010000000FFFF80B58CB0FC
:1017700002AFF860084611461A4603467B810B46C5
:101780003B811346FB80FFF7D9F97862FB6893F839
:101790003D30DBB2202B40F018827B6A0093192386
:1017A00001228149F86800F071FB0346002B01D04B
:1017B00002230BE2FB6893F83C30012B01D102239A
:1017C00004E2FB68012283F83C20FB681B681B686D
:1017D00003F00103012B07D0FB681B681A68FB6844
:1017E0001B6842F001021A60FB681B681A68FB68FC
:1017F0001B6822F400621A60FB68222283F83D20F5
:10180000FB68402283F83E20FB6800221A64FB68D4
:101810003A6B5A62FB68BA8E5A85FB685B8D9AB246
:10182000FB681A85FB68614ADA62F8883A89798927
:101830007B6A0193BB6B00930346F86800F056FA8D
:101840000346002B01D00123C0E1FB681B8D002B58
:1018500013D100233B62FB681B685B693B62FB683A
:101860001B689B693B623B6AFB681B681A68FB68E4
:101870001B6842F400721A6094E1FB681B8D012B17
:101880001DD1FB681B681A68FB681B6822F4806224
:101890001A6072B60023FB61FB681B685B69FB6121
:1018A000FB681B689B69FB61FB69FB681B681A6826
:1018B000FB681B6842F400721A6062B672E1FB6852
:1018C0001B8D022B1DD1FB681B681A68FB681B6807
:1018D00042F400621A6072B60023BB61FB681B68A9
:1018E0005B69BB61FB681B689B69BB61BB69FB688B
:1018F0001B681A68FB681B6822F480621A6062B673
:1019000050E1FB681B681A68FB681B6842F4806240
:101910001A6000237B61FB681B685B697B61FB6865
:101920001B689B697B617B693CE1FB681B8D032B1A
:1019300000F2F580FB681B8D012B23D17A6AB96B0D
:10194000F86800F0FBFB0346002B01D001233DE1CA
:10195000FB681B681A69FB685B6AD2B21A70FB6885
:101960005B6A5A1CFB685A62FB681B8D013B9AB28A
:10197000FB681A85FB685B8D9BB2013B9AB2FB68E2
:101980005A850FE1FB681B8D022B50D17B6A0093B7
:10199000BB6B00220649F86800F078FA0346002B7A
:1019A00008D0012312E100BF020010000000FFFF79
:1019B0000400010072B6FB681B681A68FB681B68AC
:1019C00042F400721A60FB681B681A69FB685B6A64
:1019D000D2B21A70FB685B6A5A1CFB685A62FB68D9
:1019E0001B8D013B9AB2FB681A85FB685B8D9BB22D
:1019F000013B9AB2FB685A8562B6FB681B681A699C
:101A0000FB685B6AD2B21A70FB685B6A5A1CFB689F
:101A10005A62FB681B8D013B9AB2FB681A85FB6812
:101A20005B8D9BB2013B9AB2FB685A85BAE07B6A38
:101A30000093BB6B00226749F86800F027FA034661
:101A4000002B01D00123C1E0FB681B681A68FB680A
:101A50001B6822F480621A6072B6FB681B681A6900
:101A6000FB685B6AD2B21A70FB685B6A5A1CFB683F
:101A70005A62FB681B8D013B9AB2FB681A85FB68B2
:101A80005B8D9BB2013B9AB2FB685A857B6A0093DF
:101A9000BB6B00224F49F86800F0F8F90346002BB1
:101AA00001D0012392E0FB681B681A68FB681B6881
:101AB00042F400721A60FB681B681A69FB685B6A73
:101AC000D2B21A70FB685B6A5A1CFB685A62FB68E8
:101AD0001B8D013B9AB2FB681A85FB685B8D9BB23C
:101AE000013B9AB2FB685A8562B6FB681B681A69AB
:101AF000FB685B6AD2B21A70FB685B6A5A1CFB68AF
:101B00005A62FB681B8D013B9AB2FB681A85FB6821
:101B10005B8D9BB2013B9AB2FB685A8542E07A6AC0
:101B2000B96BF86800F00AFB0346002B01D00123D3
:101B30004CE0FB681B681A69FB685B6AD2B21A70DA
:101B4000FB685B6A5A1CFB685A62FB681B8D013B91
:101B50009AB2FB681A85FB685B8D9BB2013B9AB217
:101B6000FB685A85FB681B685B6903F00403042B60
:101B700018D1FB681B681A69FB685B6AD2B21A70DD
:101B8000FB685B6A5A1CFB685A62FB681B8D013B51
:101B90009AB2FB681A85FB685B8D9BB2013B9AB2D7
:101BA000FB685A85FB681B8D002B7FF4BEAEFB687B
:101BB000202283F83D20FB68002283F83E20FB684A
:101BC000002283F83C20002300E002231846283737
:101BD000BD4680BD0400010080B588B002AFF8604A
:101BE000084611461A4603467B810B463B81134645
:101BF000FB80FB681B681A68FB681B6842F48072F4
:101C00001A607B6A00933B6A00224FF00111F8686A
:101C100000F03CF90346002B01D001235FE07B89F3
:101C2000DBB21A46FB681B6802F0FE021A617B6A8F
:101C30003A6A2D49F86800F080F90346002B01D07C
:101C400001234CE000237B61FB681B685B697B61BF
:101C5000FB681B689B697B617B697A6A396AF868F3
:101C600000F0EAF90346002B0DD0FB681B6C042B37
:101C700007D1FB681B681A68FB681B6842F4007296
:101C80001A6001232BE0FB88012B05D13B89DAB2D6
:101C9000FB681B681A6121E03B891B0A9BB2DAB220
:101CA000FB681B681A617A6A396AF86800F0C4F93F
:101CB0000346002B0DD0FB681B6C042B07D1FB687F
:101CC0001B681A68FB681B6842F400721A600123E3
:101CD00005E03B89DAB2FB681B681A6100231846ED
:101CE0001837BD4680BD00BF0200010080B588B036
:101CF00002AFF860084611461A4603467B810B4640
:101D00003B811346FB80FB681B681A68FB681B68F5
:101D100042F480621A60FB681B681A68FB681B68E3
:101D200042F480721A607B6A00933B6A00224FF093
:101D30000111F86800F0AAF80346002B01D0012336
:101D40009EE07B89DBB21A46FB681B6802F0FE024C
:101D50001A617B6A3A6A4C49F86800F0EEF803466B
:101D6000002B01D001238BE000237B61FB681B6803
:101D70005B697B61FB681B689B697B617B697A6A35
:101D8000396AF86800F058F90346002B0DD0FB685B
:101D90001B6C042B07D1FB681B681A68FB681B6867
:101DA00042F400721A6001236AE0FB88012B05D11E
:101DB0003B89DAB2FB681B681A6121E03B891B0A88
:101DC0009BB2DAB2FB681B681A617A6A396AF868F2
:101DD00000F032F90346002B0DD0FB681B6C042B7E
:101DE00007D1FB681B681A68FB681B6842F4007225
:101DF0001A60012344E03B89DAB2FB681B681A6170
:101E00007A6A396AF86800F017F90346002B0DD09A
:101E1000FB681B6C042B07D1FB681B681A68FB6806
:101E20001B6842F400721A60012329E0FB681B68FA
:101E30001A68FB681B6842F480721A607B6A009320
:101E40003B6A00224FF00111F86800F01FF80346CA
:101E5000002B01D0012313E07B89DBB243F00103A7
:101E6000DAB2FB681B681A617B6A3A6A0649F8684D
:101E700000F063F80346002B01D0012300E00023AB
:101E800018461837BD4680BD0200010080B584B0F9
:101E900000AFF860B9603B601346FB7125E03B681A
:101EA000B3F1FF3F21D0FEF749FE0246BB69D31ACA
:101EB0003A689A4202D33B68002B16D1FB68002295
:101EC0001A63FB68202283F83D20FB68002283F818
:101ED0003E20FB681B6C43F02002FB681A64FB6821
:101EE000002283F83C20012323E0BB681B0CDBB2FB
:101EF000012B0DD1FB681B685B69DA43BB6813409B
:101F00009BB2002B0CBF01230023DBB21A460CE06E
:101F1000FB681B689B69DA43BB6813409BB2002BCC
:101F20000CBF01230023DBB21A46FB799A42B6D0DC
:101F3000002318461037BD4680BD80B584B000AF81
:101F4000F860B9607A603B6051E0FB681B685B69D0
:101F500003F48063B3F5806F23D1FB681B681A68B4
:101F6000FB681B6842F400721A60FB681B686FF420
:101F700080625A61FB6800221A63FB68202283F8A2
:101F80003D20FB68002283F83E20FB681B6C43F079
:101F90000402FB681A64FB68002283F83C200123DA
:101FA00046E07B68B3F1FF3F21D0FEF7C7FD024654
:101FB0003B68D31A7A689A4202D37B68002B16D109
:101FC000FB6800221A63FB68202283F83D20FB682F
:101FD000002283F83E20FB681B6C43F02002FB6864
:101FE0001A64FB68002283F83C20012320E0BB68D0
:101FF0001B0CDBB2012B0CD1FB681B685B69DA435D
:10200000BB6813409BB2002B14BF01230023DBB23B
:102010000BE0FB681B689B69DA43BB6813409BB20B
:10202000002B14BF01230023DBB2002B8DD1002332
:1020300018461037BD4680BD80B584B000AFF8604B
:10204000B9607A602DE0F86800F0CEF80346002B06
:1020500001D001232DE0BB68B3F1FF3F21D0FEF793
:102060006DFD02467B68D31ABA689A4202D3BB68F8
:10207000002B16D1FB6800221A63FB68202283F82C
:102080003D20FB68002283F83E20FB681B6C43F078
:102090002002FB681A64FB68002283F83C200123BD
:1020A00007E0FB681B685B6903F08003802BCAD1E3
:1020B000002318461037BD4680BD80B584B000AF00
:1020C000F860B9607A602DE0F86800F08DF803469A
:1020D000002B01D001232DE0BB68B3F1FF3F21D0DD
:1020E000FEF72CFD02467B68D31ABA689A4202D3E7
:1020F000BB68002B16D1FB6800221A63FB68202204
:1021000083F83D20FB68002283F83E20FB681B6CAF
:1021100043F02002FB681A64FB68002283F83C202D
:10212000012307E0FB681B685B6903F00403042BD1
:10213000CAD1002318461037BD4680BD80B584B093
:1021400000AFF860B9607A6042E0FB681B685B69C9
:1021500003F01003102B19D1FB681B686FF01002FD
:102160005A61FB6800221A63FB68202283F83D2035
:10217000FB68002283F83E20FB681A6CFB681A6437
:10218000FB68002283F83C20012329E0FEF7D6FCFF
:1021900002467B68D31ABA689A4202D3BB68002B06
:1021A00016D1FB6800221A63FB68202283F83D20C9
:1021B000FB68002283F83E20FB681B6C43F0200282
:1021C000FB681A64FB68002283F83C20012307E0C7
:1021D000FB681B685B6903F04003402BB5D100230B
:1021E00018461037BD4680BD80B483B000AF78601C
:1021F0007B681B685B6903F48063B3F5806F1BD158
:102200007B681B686FF480625A617B6800221A63E6
:102210007B68202283F83D207B68002283F83E20E3
:102220007B681B6C43F004027B681A647B680022A5
:1022300083F83C20012300E0002318460C37BD46FC
:1022400080BC704780B586B000AF78607B68002B9B
:1022500001D101236CE27B681B6803F00103002BB2
:1022600000F08780924B5B6803F00C03042B0CD0CA
:102270008F4B5B6803F00C03082B12D18C4B5B680F
:1022800003F48033B3F5803F0BD1894B1B6803F413
:102290000033002B6CD07B685B68002B68D1012376
:1022A00046E27B685B68B3F5803F06D1804B1B68D4
:1022B0007F4A43F4803313602EE07B685B68002B19
:1022C0000CD17B4B1B687A4A23F480331360784B24
:1022D0001B68774A23F4802313601DE07B685B68EA
:1022E000B3F5A02F0CD1724B1B68714A43F48023C5
:1022F00013606F4B1B686E4A43F4803313600BE02E
:102300006B4B1B686A4A23F480331360684B1B686D
:10231000674A23F4802313607B685B68002B13D02B
:10232000FEF70CFC386108E0FEF708FC02463B694A
:10233000D31A642B01D90323FAE15D4B1B6803F424
:102340000033002BF0D014E0FEF7F8FB386108E012
:10235000FEF7F4FB02463B69D31A642B01D9032331
:10236000E6E1534B1B6803F40033002BF0D100E08F
:1023700000BF7B681B6803F00203002B63D04C4B4B
:102380005B6803F00C03002B0BD0494B5B6803F038
:102390000C03082B1CD1464B5B6803F48033002BE5
:1023A00016D1434B1B6803F00203002B05D07B685A
:1023B0001B69012B01D00123BAE13D4B1B6823F0BF
:1023C000F8027B685B69DB00394913430B603AE034
:1023D0007B681B69002B20D0364B01221A60FEF768
:1023E000ADFB386108E0FEF7A9FB02463B69D31A52
:1023F000022B01D903239BE12D4B1B6803F0020341
:10240000002BF0D02A4B1B6823F0F8027B685B6935
:10241000DB00274913430B6015E0264B00221A60AE
:10242000FEF78CFB386108E0FEF788FB02463B694B
:10243000D31A022B01D903237AE11D4B1B6803F049
:102440000203002BF0D17B681B6803F00803002B0C
:102450003AD07B689B69002B19D0174B01221A6078
:10246000FEF76CFB386108E0FEF768FB02463B694B
:10247000D31A022B01D903235AE10D4B5B6A03F0F7
:102480000203002BF0D0012000F00AFB1CE00A4BF5
:1024900000221A60FEF752FB38610FE0FEF74EFB98
:1024A00002463B69D31A022B08D9032340E100BF3F
:1024B0000010024000004242800442429E4B5B6A90
:1024C00003F00203002BE9D17B681B6803F00403CF
:1024D000002B00F0A6800023FB75974BDB6903F00F
:1024E0008053002B0DD1944BDB69934A43F080530A
:1024F000D361914BDB6903F08053BB60BB68012360
:10250000FB758E4B1B6803F48073002B18D18B4B2B
:102510001B688A4A43F480731360FEF70FFB38612F
:1025200008E0FEF70BFB02463B69D31A642B01D986
:102530000323FDE0814B1B6803F48073002BF0D074
:102540007B68DB68012B06D17B4B1B6A7A4A43F020
:10255000010313622DE07B68DB68002B0CD1764B06
:102560001B6A754A23F001031362734B1B6A724A9C
:1025700023F0040313621CE07B68DB68052B0CD19D
:102580006D4B1B6A6C4A43F0040313626A4B1B6A6F
:10259000694A43F0010313620BE0674B1B6A664A0A
:1025A00023F001031362644B1B6A634A23F00403A4
:1025B00013627B68DB68002B15D0FEF7BFFA386129
:1025C0000AE0FEF7BBFA02463B69D31A41F28832B1
:1025D000934201D90323ABE0574B1B6A03F002037C
:1025E000002BEED014E0FEF7A9FA38610AE0FEF7FE
:1025F000A5FA02463B69D31A41F28832934201D9C7
:10260000032395E04C4B1B6A03F00203002BEED131
:10261000FB7D012B05D1484BDB69474A23F08053F2
:10262000D3617B68DB69002B00F08180424B5B68E3
:1026300003F00C03082B61D07B68DB69022B46D1C9
:102640003F4B00221A60FEF779FA386108E0FEF786
:1026500075FA02463B69D31A022B01D9032367E0BE
:10266000354B1B6803F00073002BF0D17B681B6AAD
:10267000B3F5803F08D1304B5B6823F400327B68B0
:102680009B682D4913434B602B4B5B6823F47412FA
:102690007B68196A7B685B6A0B43274913434B606D
:1026A000274B01221A60FEF749FA386108E0FEF76D
:1026B00045FA02463B69D31A022B01D9032337E0BE
:1026C0001D4B1B6803F00073002BF0D02FE01C4B58
:1026D00000221A60FEF732FA386108E0FEF72EFA9F
:1026E00002463B69D31A022B01D9032320E0124B87
:1026F0001B6803F00073002BF0D118E07B68DB69E6
:10270000012B01D1012313E00B4B5B68FB60FB68DD
:1027100003F480327B681B6A9A4206D1FB6803F49B
:1027200070127B685B6A9A4201D0012300E00023AB
:1027300018461837BD4680BD0010024000700040AA
:102740006000424280B584B000AF786039607B6839
:10275000002B01D10123D0E06A4B1B6803F0070373
:102760003A689A4210D9674B1B6823F00702654903
:102770003B6813430B60634B1B6803F007033A6825
:102780009A4201D00123B8E07B681B6803F0020382
:10279000002B20D07B681B6803F00403002B05D0BE
:1027A000594B5B68584A43F4E06353607B681B688D
:1027B00003F00803002B05D0534B5B68524A43F4E7
:1027C00060535360504B5B6823F0F0027B689B685A
:1027D0004D4913434B607B681B6803F00103002BDA
:1027E00040D07B685B68012B07D1474B1B6803F423
:1027F0000033002B15D101237FE07B685B68022B3F
:1028000007D1414B1B6803F00073002B09D1012352
:1028100073E03D4B1B6803F00203002B01D1012341
:102820006BE0394B5B6823F003027B685B683649D9
:1028300013434B60FEF782F9F8600AE0FEF77EF979
:102840000246FB68D31A41F28832934201D903232E
:1028500053E02D4B5B6803F00C027B685B689B00C8
:102860009A42EBD1274B1B6803F007033A689A4260
:1028700010D2244B1B6823F0070222493B68134304
:102880000B60204B1B6803F007033A689A4201D0A3
:10289000012332E07B681B6803F00403002B08D09F
:1028A000194B5B6823F4E0627B68DB6816491343CD
:1028B0004B607B681B6803F00803002B09D0124BA8
:1028C0005B6823F460527B681B69DB000E4913438D
:1028D0004B6000F021F801460B4B5B681B0903F0CD
:1028E0000F030A4AD35C21FA03F3094A1360094B28
:1028F0001B681846FEF71CF8002318461037BD4623
:1029000080BD00BF00200240001002405864000853
:10291000000000200400002090B48AB000AF2A4BD1
:102920003C1D0FCB84E80F00284B1B883B80002305
:10293000FB610023BB6100237B6200237B610023DA
:102940003B62234B5B68FB61FB6903F00C03042BC8
:1029500002D0082B03D02DE01E4B3B622DE0FB691B
:102960009B0C03F00F0307F12802134413F8243CD7
:102970007B61FB6903F48033002B13D0144B5B683D
:102980005B0C03F0010307F12802134413F8283C01
:10299000BB617B690F4A02FB03F2BB69B2FBF3F335
:1029A0007B6204E07B690C4A02FB03F37B627B6A77
:1029B0003B6202E0074B3B6200BF3B6A1846283788
:1029C000BD4690BC704700BFE4630008F463000894
:1029D0000010024000127A0000093D0080B400AFF0
:1029E000024B1B681846BD4680BC704700000020A3
:1029F00080B500AFFFF7F2FF0146054B5B681B0A8D
:102A000003F00703034AD35C21FA03F3184680BDA1
:102A1000001002406864000880B500AFFFF7DEFFD9
:102A20000146054B5B68DB0A03F00703034AD35CEE
:102A300021FA03F3184680BD0010024068640008C4
:102A400080B483B000AF786039607B680F221A6071
:102A5000114B5B6803F003027B685A600E4B5B68A6
:102A600003F0F0027B689A600B4B5B6803F4E06252
:102A70007B68DA60084B5B68DB0803F4E0627B6824
:102A80001A61064B1B6803F007023B681A6000BF1F
:102A90000C37BD4680BC7047001002400020024049
:102AA00080B485B000AF78600A4B1B680A4AA2FB6D
:102AB00003235B0A7A6802FB03F3FB6000BFFB6839
:102AC0005A1EFA60002BF9D100BF1437BD4680BCF6
:102AD000704700BF00000020D34D621080B582B067
:102AE00000AF78607B68002B01D101231DE07B687B
:102AF00093F83D30DBB2002B06D17B68002283F8CF
:102B00003C207868FDF782FE7B68022283F83D2036
:102B10007B681A687B6804331946104600F060FB36
:102B20007B68012283F83D20002318460837BD4604
:102B300080BD80B485B000AF78607B68022283F8E6
:102B40003D207B681B689B6803F00703FB60FB6804
:102B5000062B07D07B681B681A687B681B6842F0ED
:102B600001021A607B68012283F83D200023184689
:102B70001437BD4680BC704780B485B000AF786024
:102B80007B681B68DA687B681B6842F00102DA60C8
:102B90007B681B689B6803F00703FB60FB68062BE0
:102BA00007D07B681B681A687B681B6842F00102CB
:102BB0001A60002318461437BD4680BC704780B5A4
:102BC00082B000AF78607B68002B01D101231DE04B
:102BD0007B6893F83D30DBB2002B06D17B68002286
:102BE00083F83C20786800F015F87B68022283F8AF
:102BF0003D207B681A687B6804331946104600F054
:102C0000EFFA7B68012283F83D200023184608373D
:102C1000BD4680BD80B483B000AF786000BF0C3784
:102C2000BD4680BC7047000080B584B000AF7860BE
:102C300039607B681B6801223968184600F050FD36
:102C40007B681B68104A934207D17B681B685A6CEB
:102C50007B681B6842F400425A647B681B689B686F
:102C600003F00703FB60FB68062B07D07B681B683B
:102C70001A687B681B6842F001021A60002318463C
:102C80001037BD4680BD00BF002C014080B582B02A
:102C900000AF78607B681B681B6903F00203022B9E
:102CA00022D17B681B68DB6803F00203022B1BD177
:102CB0007B681B686FF002021A617B6801221A7739
:102CC0007B681B689B6903F00303002B03D07868C3
:102CD00000F06AFA05E0786800F05DFA786800F0C4
:102CE0006CFA7B6800221A777B681B681B6903F00B
:102CF0000403042B22D17B681B68DB6803F0040308
:102D0000042B1BD17B681B686FF004021A617B687F
:102D100002221A777B681B689B6903F44073002BBF
:102D200003D0786800F040FA05E0786800F033FAE4
:102D3000786800F042FA7B6800221A777B681B688B
:102D40001B6903F00803082B22D17B681B68DB6832
:102D500003F00803082B1BD17B681B686FF0080287
:102D60001A617B6804221A777B681B68DB6903F0B1
:102D70000303002B03D0786800F016FA05E07868AA
:102D800000F009FA786800F018FA7B6800221A77D8
:102D90007B681B681B6903F01003102B22D17B6832
:102DA0001B68DB6803F01003102B1BD17B681B68CA
:102DB0006FF010021A617B6808221A777B681B6823
:102DC000DB6903F44073002B03D0786800F0ECF962
:102DD00005E0786800F0DFF9786800F0EEF97B68CC
:102DE00000221A777B681B681B6903F00103012B23
:102DF0000ED17B681B68DB6803F00103012B07D150
:102E00007B681B686FF001021A617868FDF76EFC41
:102E10007B681B681B6903F08003802B0ED17B68E5
:102E20001B68DB6803F08003802B07D17B681B687D
:102E30006FF080021A61786800F0C3FC7B681B6841
:102E40001B6903F04003402B0ED17B681B68DB68D5
:102E500003F04003402B07D17B681B686FF04002F2
:102E60001A61786800F0B2F97B681B681B6903F08F
:102E70002003202B0ED17B681B68DB6803F0200346
:102E8000202B07D17B681B686FF020021A617868DD
:102E900000F08EFC00BF0837BD4680BD80B584B011
:102EA00000AFF860B9607A60FB6893F83C30012BA2
:102EB00001D10223B4E0FB68012283F83C20FB68C7
:102EC000022283F83D207B680C2B00F29F8001A238
:102ED00052F823F0092F00080D3000080D300008CB
:102EE0000D300008492F00080D3000080D30000893
:102EF0000D3000088B2F00080D3000080D30000841
:102F00000D300008CB2F0008FB681B68B968184615
:102F100000F0C8F9FB681B689A69FB681B6842F0FF
:102F200008029A61FB681B689A69FB681B6822F0BB
:102F300004029A61FB681B689969BB681A69FB689F
:102F40001B680A439A6162E0FB681B68B96818460F
:102F500000F00EFAFB681B689A69FB681B6842F474
:102F600000629A61FB681B689A69FB681B6822F41F
:102F700080629A61FB681B689969BB681B691A02C9
:102F8000FB681B680A439A6141E0FB681B68B968EB
:102F9000184600F057FAFB681B68DA69FB681B6883
:102FA00042F00802DA61FB681B68DA69FB681B689B
:102FB00022F00402DA61FB681B68D969BB681A69F0
:102FC000FB681B680A43DA6121E0FB681B68B9688B
:102FD000184600F0A1FAFB681B68DA69FB681B68F9
:102FE00042F40062DA61FB681B68DA69FB681B68FF
:102FF00022F48062DA61FB681B68D969BB681B69CF
:103000001A02FB681B680A43DA6100E000BFFB6834
:10301000012283F83D20FB68002283F83C20002336
:1030200018461037BD4680BD80B584B000AF7860CB
:1030300039607B6893F83C30012B01D10223A6E074
:103040007B68012283F83C207B68022283F83D20C4
:103050007B681B689B68FB60FB6823F07703FB6061
:10306000FB6823F47F43FB607B681B68FA689A6007
:103070003B681B68402B67D0402B0BD8102B73D0BC
:10308000102B02D8002B6FD078E0202B6CD0302B87
:103090006AD073E0702B0DD0702B04D8502B33D036
:1030A000602B41D06AE0B3F5805F66D0B3F5005F76
:1030B00017D063E07B6818683B6899683B685A687A
:1030C0003B68DB6800F0EDFA7B681B689B68FB607F
:1030D000FB6843F07703FB607B681B68FA689A60C3
:1030E0004CE07B6818683B6899683B685A683B68A5
:1030F000DB6800F0D6FA7B681B689A687B681B68FF
:1031000042F480429A6039E07B6818683B685968ED
:103110003B68DB681A4600F04DFA7B681B6850215B
:10312000184600F0A4FA29E07B6818683B685968E3
:103130003B68DB681A4600F06BFA7B681B6860210D
:10314000184600F094FA19E07B6818683B685968E3
:103150003B68DB681A4600F02DFA7B681B6840214B
:10316000184600F084FA09E07B681A683B681B681F
:103170001946104600F07BFA00E000BF7B68012290
:1031800083F83D207B68002283F83C20002318460A
:103190001037BD4680BD80B483B000AF786000BFFB
:1031A0000C37BD4680BC704780B483B000AF7860F8
:1031B00000BF0C37BD4680BC704780B483B000AF01
:1031C000786000BF0C37BD4680BC704780B483B0C8
:1031D00000AF786000BF0C37BD4680BC7047000070
:1031E00080B485B000AF786039607B681B68FB6095
:1031F0007B68294A93420BD07B68B3F1804F07D09C
:103200007B68264A934203D07B68254A934208D1C3
:10321000FB6823F07003FB603B685B68FA6813434C
:10322000FB607B681C4A93420BD07B68B3F1804FF4
:1032300007D07B68194A934203D07B68184A9342AF
:1032400008D1FB6823F44073FB603B68DB68FA68D5
:103250001343FB60FB6823F080023B685B69134308
:10326000FB607B68FA681A603B689A687B68DA6280
:103270003B681A687B689A627B68074A934203D16D
:103280003B681A697B681A637B6801225A6100BF38
:103290001437BD4680BC7047002C0140000400403C
:1032A0000008004080B487B000AF786039607B6868
:1032B0001B6A23F001027B681A627B681B6A7B61D0
:1032C0007B685B683B617B689B69FB60FB6823F004
:1032D0007003FB60FB6823F00303FB603B681B6823
:1032E000FA681343FB607B6923F002037B613B6850
:1032F0009B687A6913437B617B681C4A93420CD1BB
:103300007B6923F008037B613B68DB687A691343C0
:103310007B617B6923F004037B617B68134A9342E2
:1033200011D13B6923F480733B613B6923F4007343
:103330003B613B685B693A6913433B613B689B694E
:103340003A6913433B617B683A695A607B68FA6863
:103350009A613B685A687B685A637B687A691A622B
:1033600000BF1C37BD4680BC704700BF002C014029
:1033700080B487B000AF786039607B681B6A23F047
:1033800010027B681A627B681B6A7B617B685B68E2
:103390003B617B689B69FB60FB6823F4E043FB6057
:1033A000FB6823F44073FB603B681B681B02FA68F0
:1033B0001343FB607B6923F020037B613B689B68C0
:1033C0001B017A6913437B617B681D4A93420DD1CF
:1033D0007B6923F080037B613B68DB681B017A69B2
:1033E00013437B617B6923F040037B617B68144A54
:1033F000934213D13B6923F480633B613B6923F41F
:1034000000633B613B685B699B003A6913433B6126
:103410003B689B699B003A6913433B617B683A694F
:103420005A607B68FA689A613B685A687B689A635D
:103430007B687A691A6200BF1C37BD4680BC704742
:10344000002C014080B487B000AF786039607B68A1
:103450001B6A23F480727B681A627B681B6A7B613B
:103460007B685B683B617B68DB69FB60FB6823F022
:103470007003FB60FB6823F00303FB603B681B6881
:10348000FA681343FB607B6923F400737B613B683C
:103490009B681B027A6913437B617B681D4A9342D8
:1034A0000DD17B6923F400637B613B68DB681B0201
:1034B0007A6913437B617B6923F480637B617B685A
:1034C000144A934213D13B6923F480533B613B6917
:1034D00023F400533B613B685B691B013A6913436A
:1034E0003B613B689B691B013A6913433B617B6805
:1034F0003A695A607B68FA68DA613B685A687B68A7
:10350000DA637B687A691A6200BF1C37BD4680BCEB
:10351000704700BF002C014080B487B000AF7860D6
:1035200039607B681B6A23F480527B681A627B686F
:103530001B6A3B617B685B687B617B68DB69FB6066
:10354000FB6823F4E043FB60FB6823F44073FB60FB
:103550003B681B681B02FA681343FB603B6923F45A
:1035600000533B613B689B681B033A6913433B6113
:103570007B680F4A934209D17B6923F480437B61C6
:103580003B685B699B017A6913437B617B687A695D
:103590005A607B68FA68DA613B685A687B681A642B
:1035A0007B683A691A6200BF1C37BD4680BC704711
:1035B000002C014080B487B000AFF860B9607A6039
:1035C000FB681B6A7B61FB681B6A23F00102FB68D6
:1035D0001A62FB689B693B613B6923F0F0033B6126
:1035E0007B681B013A6913433B617B6923F00A0343
:1035F0007B617A69BB6813437B61FB683A699A61B6
:10360000FB687A691A6200BF1C37BD4680BC7047F0
:1036100080B487B000AFF860B9607A60FB681B6A5D
:1036200023F01002FB681A62FB689B697B61FB68F0
:103630001B6A3B617B6923F470437B617B681B03DE
:103640007A6913437B613B6923F0A0033B61BB684C
:103650001B013A6913433B61FB687A699A61FB6815
:103660003A691A6200BF1C37BD4680BC704780B4FF
:1036700085B000AF786039607B689B68FB60FB6851
:1036800023F07003FB603A68FB68134343F00703C1
:10369000FB607B68FA689A6000BF1437BD4680BC47
:1036A000704780B487B000AFF860B9607A603B6063
:1036B000FB689B687B617B6923F47F437B613B688C
:1036C0001A027B681A43BB6813437A6913437B6110
:1036D000FB687A699A6000BF1C37BD4680BC7047A2
:1036E00080B487B000AFF860B9607A60BB6803F05F
:1036F0001F03012202FA03F37B61FB681A6A7B69EC
:10370000DB431A40FB681A62FB681A6ABB6803F065
:103710001F03796801FA03F31A43FB681A6200BFBA
:103720001C37BD4680BC704780B485B000AF786060
:1037300039607B6893F83C30012B01D1022332E0E1
:103740007B68012283F83C207B68022283F83D20BD
:103750007B681B685B68FB607B681B689B68BB6061
:10376000FB6823F07003FB603B681B68FA68134337
:10377000FB60BB6823F08003BB603B685B68BA6892
:103780001343BB607B681B68FA685A607B681B68E0
:10379000BA689A607B68012283F83D207B6800222A
:1037A00083F83C20002318461437BD4680BC704780
:1037B00080B483B000AF786000BF0C37BD4680BCDA
:1037C000704780B483B000AF786000BF0C37BD464F
:1037D00080BC704780B582B000AF78607B68002BFA
:1037E00001D101233FE07B6893F83930DBB2002B35
:1037F00006D17B68002283F838207868FDF722F82C
:103800007B68242283F839207B681B68DA687B6830
:103810001B6822F40052DA60786800F029F87B68AF
:103820001B681A697B681B6822F490421A617B68E6
:103830001B685A697B681B6822F02A025A617B6800
:103840001B68DA687B681B6842F40052DA607B68A8
:103850000022DA637B68202283F839207B682022EB
:1038600083F83A20002318460837BD4680BD000083
:1038700080B584B000AF78607B681B681B6923F457
:1038800040517B68DA687B681B680A431A617B6871
:103890009A687B681B691A437B685B691343FB600A
:1038A0007B681B68DB6823F4B05323F00C037A6851
:1038B0001268F9680B43D3607B681B685B6923F46B
:1038C00040717B689A697B681B680A435A617B6810
:1038D0001B68524A93424ED1FFF79EF8B860BA680F
:1038E00013469B0013449A001A447B685B689B0054
:1038F000B2FBF3F34A4AA2FB03235B091901BA683E
:1039000013469B0013449A001A447B685B689B0033
:10391000B2FBF3F2424BA3FB02035B09642000FB02
:1039200003F3D31A1B0132333D4AA2FB03235B0985
:1039300003F0F0031944BA6813469B0013449A003D
:103940001A447B685B689B00B2FBF3F2344BA3FB29
:1039500002035B09642000FB03F3D31A1B0132331B
:103960002F4AA2FB03235B0903F00F027B681B684D
:103970000A449A604DE0FFF73BF8B860BA68134616
:103980009B0013449A001A447B685B689B00B2FB5F
:10399000F3F3234AA2FB03235B091901BA68134618
:1039A0009B0013449A001A447B685B689B00B2FB3F
:1039B000F3F21B4BA3FB02035B09642000FB03F340
:1039C000D31A1B013233164AA2FB03235B0903F00F
:1039D000F0031944BA6813469B0013449A001A4432
:1039E0007B685B689B00B2FBF3F20D4BA3FB020309
:1039F0005B09642000FB03F3D31A1B013233084A2E
:103A0000A2FB03235B0903F00F027B681B680A44D7
:103A10009A6000BF1037BD4680BD00BF003801402E
:103A20001F85EB5180B485B000AFEFF30583BB6019
:103A3000BB68002B0FD1EFF310837B607B68002BFA
:103A400009D1104B1B68022B09D1EFF311833B60A6
:103A50003B68002B03D06FF00503FB600CE0094BC3
:103A60001B68002B05D1074B01221A600023FB6065
:103A700002E04FF0FF33FB60FB6818461437BD4689
:103A800080BC70472C00002080B584B000AFEFF3FD
:103A90000583BB60BB68002B0FD1EFF310837B6005
:103AA0007B68002B09D1114B1B68022B09D1EFF366
:103AB00011833B603B68002B03D06FF00503FB6074
:103AC0000EE00A4B1B68012B07D1084B02221A603B
:103AD00001F064F80023FB6002E04FF0FF33FB606D
:103AE000FB6818461037BD4680BD00BF2C00002083
:103AF00080B592B004AFF860B9607A6000237B6152
:103B0000EFF305837B627B6A002B40F09480EFF338
:103B100010833B623B6A002B40F08D80484B1B6852
:103B2000022B06D1EFF31183FB61FB69002B40F000
:103B30008280FB68002B7ED080233B631823FB62CE
:103B40000023FB7607F11B037B634FF0FF33BB625F
:103B50007B68002B45D07B681B68002B02D07B68FC
:103B60001B687B637B689B69002B02D07B689B6929
:103B7000FB62FB6A002B08D0FB6A382B05D87B68F8
:103B80005B6803F00103002B01D0002354E07B6845
:103B90005B69002B03D07B685B699B083B637B6898
:103BA0009B68002B0ED07B68DB685B2B0AD97B6897
:103BB0001B69002B06D07B685B69002B02D00123B8
:103BC000BB6210E07B689B68002B0CD17B68DB68D4
:103BD000002B08D17B681B69002B04D10023BB623A
:103BE00001E00023BB62BB6A012B10D17B681B691B
:103BF0007A68926802920193FB6A0093BB683A6B01
:103C0000796BF86800F002FE03467B6113E0BB6A43
:103C1000002B10D13B6B9AB207F114030193FB6A9E
:103C20000093BB68796BF86800F049FE0346012BEE
:103C300001D000237B617B6918463837BD4680BDC3
:103C40002C00002080B586B000AF7860EFF30583CC
:103C50003B613B69002B0FD1EFF31083FB60FB68E6
:103C6000002B09D10D4B1B68022B09D1EFF31183F7
:103C7000BB60BB68002B03D06FF005037B6107E0DE
:103C800000237B617B68002B02D0786800F052FF34
:103C90007B6918461837BD4680BD00BF2C00002048
:103CA00080B485B000AFF860B9607A60FB68064AFE
:103CB0001A60BB68054A1A607B6880221A6000BFE0
:103CC0001437BD4680BC7047300000208C000020B7
:103CD00080B485B000AFF860B9607A60FB68074ACD
:103CE0001A60BB68064A1A607B684FF480721A60DB
:103CF00000BF1437BD4680BC704700BF8C02002057
:103D0000E802002080B483B000AF78607B6803F1E4
:103D100008027B685A607B684FF0FF329A607B68CC
:103D200003F108027B68DA607B6803F108027B68B4
:103D30001A617B6800221A6000BF0C37BD4680BC48
:103D4000704780B483B000AF78607B6800221A614E
:103D500000BF0C37BD4680BC704780B485B000AF53
:103D6000786039607B685B68FB603B68FA685A6022
:103D7000FB689A683B689A60FB689B683A685A607F
:103D8000FB683A689A603B687A681A617B681B68CE
:103D90005A1C7B681A6000BF1437BD4680BC704750
:103DA00080B485B000AF786039603B681B68BB6049
:103DB000BB68B3F1FF3F03D17B681B69FB600CE07C
:103DC0007B680833FB6002E0FB685B68FB60FB68B4
:103DD0005B681B68BA689A42F6D2FB685A683B680F
:103DE0005A603B685B683A689A603B68FA689A6018
:103DF000FB683A685A603B687A681A617B681B689E
:103E00005A1C7B681A6000BF1437BD4680BC7047DF
:103E100080B485B000AF78607B681B69FB607B680D
:103E20005B687A6892689A607B689B687A68526877
:103E30005A60FB685B687A689A4203D17B689A682B
:103E4000FB685A607B6800221A61FB681B685A1E77
:103E5000FB681A60FB681B6818461437BD4680BCB7
:103E60007047000080B584B000AF786039607B682F
:103E7000FB60FB68002B09D14FF0500383F31188DE
:103E8000BFF36F8FBFF34F8FBB60FEE701F094FF6E
:103E9000FB681A68FB68DB6BF968096C01FB03F3CC
:103EA0001A44FB685A60FB6800229A63FB681A6830
:103EB000FB689A60FB681A68FB68DB6B013BF9687A
:103EC000096C01FB03F31A44FB68DA60FB68FF220C
:103ED00083F84420FB68FF2283F845203B68002BD1
:103EE00014D1FB681B69002B1AD0FB6810331846ED
:103EF00001F0D8F80346002B12D00D4B4FF0805242
:103F00001A60BFF34F8FBFF36F8F09E0FB68103368
:103F10001846FFF7F7FEFB6824331846FFF7F2FE5A
:103F200001F078FF012318461037BD4680BD00BF61
:103F300004ED00E080B58EB002AFF860B9607A6041
:103F40003B60FB68002B09D14FF0500383F31188CD
:103F5000BFF36F8FBFF34F8FBB62FEE73B68002B51
:103F600009D14FF0500383F31188BFF36F8FBFF374
:103F70004F8F7B62FEE77B68002B02D0BB68002B73
:103F800001D0012300E00023002B09D14FF05003A2
:103F900083F31188BFF36F8FBFF34F8F3B62FEE750
:103FA0007B68002B02D1BB68002B01D1012300E00C
:103FB0000023002B09D14FF0500383F31188BFF386
:103FC0006F8FBFF34F8FFB61FEE750237B617B69EF
:103FD000502B09D04FF0500383F31188BFF36F8F3C
:103FE000BFF34F8FBB61FEE73B68FB62FB6A002BB0
:103FF0000DD0FB6A012283F8462097F83820FB6A2F
:10400000009313467A68B968F86800F005F8FB6A0F
:1040100018463037BD4680BD80B584B000AFF8602B
:10402000B9607A60FB70BB68002B03D1BB69BA69C9
:104030001A6002E0BB697A681A60BB69FA68DA63E1
:10404000BB69BA681A640121B869FFF70BFFBB6945
:10405000FA7883F84C2000BF1037BD4680BD0000C1
:1040600080B58EB000AFF860B9607A603B60002325
:104070007B63FB683B633B6B002B09D14FF0500324
:1040800083F31188BFF36F8FBFF34F8FBB62FEE7DF
:10409000BB68002B03D13B6B1B6C002B01D10123B0
:1040A00000E00023002B09D14FF0500383F3118867
:1040B000BFF36F8FBFF34F8F7B62FEE73B68022B2E
:1040C00003D13B6BDB6B012B01D1012300E000230B
:1040D000002B09D14FF0500383F31188BFF36F8F8A
:1040E000BFF34F8F3B62FEE701F096F90346002BCA
:1040F00002D17B68002B01D1012300E00023002BBB
:1041000009D14FF0500383F31188BFF36F8FBFF3D2
:104110004F8FFB61FEE701F04FFE3B6B9A6B3B6BF1
:10412000DB6B9A4202D33B68022B29D13A68B9680B
:10413000386B00F0FFF9F8623B6B5B6A002B10D024
:104140003B6B2433184600F0ADFF0346002B13D021
:104150003F4B4FF080521A60BFF34F8FBFF36F8F0A
:104160000AE0FB6A002B07D0394B4FF080521A60EF
:10417000BFF34F8FBFF36F8F01F04CFE012363E05D
:104180007B68002B03D101F045FE00235CE07B6BD4
:10419000002B06D107F11403184600F0E5FF0123B8
:1041A0007B6301F037FE00F05DFD01F005FE3B6B27
:1041B00093F844305BB2B3F1FF3F03D13B6B002275
:1041C00083F844203B6B93F845305BB2B3F1FF3F7B
:1041D00003D13B6B002283F8452001F01BFE3A1D02
:1041E00007F114031146184600F0D4FF0346002BD4
:1041F00024D1386B00F096FA0346002B18D03B6BA5
:1042000010337A681146184600F0FEFE386B00F055
:1042100021FA00F035FD0346002B7FF47CAF0C4BF8
:104220004FF080521A60BFF34F8FBFF36F8F72E76A
:10423000386B00F00FFA00F023FD6CE7386B00F0EC
:1042400009FA00F01DFD002318463837BD4680BD31
:1042500004ED00E080B58EB000AFF860B9607A6020
:104260003B60FB683B633B6B002B09D14FF0500375
:1042700083F31188BFF36F8FBFF34F8F7B62FEE72D
:10428000BB68002B03D13B6B1B6C002B01D10123BE
:1042900000E00023002B09D14FF0500383F3118875
:1042A000BFF36F8FBFF34F8F3B62FEE73B68022B7C
:1042B00003D13B6BDB6B012B01D1012300E0002319
:1042C000002B09D14FF0500383F31188BFF36F8F98
:1042D000BFF34F8FFB61FEE701F028FEEFF3118281
:1042E0004FF0500383F31188BFF36F8FBFF34F8FED
:1042F000BA617B61BB69FB623B6B9A6B3B6BDB6BAF
:104300009A4202D33B68022B2CD13B6B93F8453089
:1043100087F82B303A68B968386B00F00BF997F9D9
:104320002B30B3F1FF3F12D13B6B5B6A002B16D0F1
:104330003B6B2433184600F0B5FE0346002B0ED02D
:104340007B68002B0BD07B6801221A6007E097F88E
:104350002B300133DBB25AB23B6B83F8452001238B
:104360007B6301E000237B63FB6A3B613B6983F372
:1043700011887B6B18463837BD4680BD80B58CB040
:1043800000AFF860B9607A600023FB62FB68BB6233
:10439000BB6A002B09D14FF0500383F31188BFF3A0
:1043A0006F8FBFF34F8F3B62FEE7BB68002B03D1DB
:1043B000BB6A1B6C002B01D1012300E00023002B02
:1043C00009D14FF0500383F31188BFF36F8FBFF310
:1043D0004F8FFB61FEE701F01FF80346002B02D16F
:1043E0007B68002B01D1012300E00023002B09D1C1
:1043F0004FF0500383F31188BFF36F8FBFF34F8FDC
:10440000BB61FEE701F0D8FCBB6A9B6B7B627B6AF9
:10441000002B1FD0B968B86A00F0F6F87B6A5A1E04
:10442000BB6A9A63BB6A1B69002B0FD0BB6A10334F
:10443000184600F037FE0346002B07D03C4B4FF0E8
:1044400080521A60BFF34F8FBFF36F8F01F0E2FC11
:10445000012369E07B68002B03D101F0DBFC002322
:1044600062E0FB6A002B06D107F11003184600F04A
:104470007BFE0123FB6201F0CDFC00F0F3FB01F0B9
:104480009BFCBB6A93F844305BB2B3F1FF3F03D1AE
:10449000BB6A002283F84420BB6A93F845305BB2C4
:1044A000B3F1FF3F03D1BB6A002283F8452001F03E
:1044B000B1FC3A1D07F110031146184600F06AFEE0
:1044C0000346002B23D1B86A00F016F90346002BEF
:1044D00017D0BB6A24337A681146184600F094FD61
:1044E000B86A00F0B7F800F0CBFB0346002B89D187
:1044F0000F4B4FF080521A60BFF34F8FBFF36F8F97
:1045000080E7B86A00F0A6F800F0BAFB7AE7B86A6C
:1045100000F0A0F800F0B4FBB86A00F0EDF8034634
:10452000002B3FF46FAF002318463037BD4680BDE7
:1045300004ED00E080B586B000AFF860B9607A6045
:1045400000237B61FB689B6B3B61FB681B6C002B52
:104550000DD1FB681B68002B4DD1FB685B681846CA
:1045600000F078FF7861FB6800225A6043E07B68C6
:10457000002B19D1FB689868FB681B6C1A46B96858
:1045800001F008FFFB689A68FB681B6C1A44FB6823
:104590009A60FB689A68FB685B689A422BD3FB6859
:1045A0001A68FB689A6026E0FB68D868FB681B6C99
:1045B0001A46B96801F0EEFEFB68DA68FB681B6C0E
:1045C0005B421A44FB68DA60FB68DA68FB681B68C8
:1045D0009A4207D2FB685A68FB681B6C5B421A441C
:1045E000FB68DA607B68022B05D13B69002B02D0A7
:1045F0003B69013B3B613B695A1CFB689A637B69E1
:1046000018461837BD4680BD80B582B000AF7860CF
:1046100039607B681B6C002B18D07B68DA687B687C
:104620001B6C1A447B68DA607B68DA687B685B68BD
:104630009A4203D37B681A687B68DA607B68D96822
:104640007B681B6C1A46386801F0A4FE00BF08376F
:10465000BD4680BD80B584B000AF786001F0ACFB92
:104660007B6893F84530FB7311E07B685B6A002B35
:1046700012D07B682433184600F014FD0346002B4B
:1046800001D000F0E7FDFB7B013BDBB2FB7397F948
:104690000F30002BE9DC00E000BF7B68FF2283F8CD
:1046A000452001F0B7FB01F087FB7B6893F84430AD
:1046B000BB7311E07B681B69002B12D07B68103341
:1046C000184600F0EFFC0346002B01D000F0C2FDBD
:1046D000BB7B013BDBB2BB7397F90E30002BE9DCEF
:1046E00000E000BF7B68FF2283F8442001F092FBCA
:1046F00000BF1037BD4680BD80B584B000AF786084
:1047000001F05AFB7B689B6B002B02D10123FB60FD
:1047100001E00023FB6001F07DFBFB6818461037C9
:10472000BD4680BD80B584B000AF786001F044FB29
:104730007B689A6B7B68DB6B9A4202D10123FB603A
:1047400001E00023FB6001F065FBFB6818461037B1
:10475000BD4680BD80B485B000AF7860396000236D
:10476000FB6014E00E4AFB6852F83330002B0BD18B
:104770000B49FB683A6841F83320094AFB68DB00C3
:1047800013447A685A6005E0FB680133FB60FB68FC
:10479000072BE7D900BF1437BD4680BC704700BF68
:1047A000B01A002080B586B000AFF860B9607A60BA
:1047B000FB687B6101F000FB7B6993F844305BB2DE
:1047C000B3F1FF3F03D17B69002283F844207B696A
:1047D00093F845305BB2B3F1FF3F03D17B69002210
:1047E00083F8452001F016FB7B699B6B002B06D1FB
:1047F0007B6924337A68B968184600F029FC786927
:10480000FFF728FF00BF1837BD4680BD80B58EB0CA
:1048100004AFF860B9607A603B607B6B002B09D114
:104820004FF0500383F31188BFF36F8FBFF34F8FA7
:104830003B62FEE7BB6B002B09D14FF0500383F3C3
:104840001188BFF36F8FBFF34F8FFB61FEE75C23CF
:104850003B613B695C2B09D04FF0500383F3118817
:10486000BFF36F8FBFF34F8FBB61FEE7BB6B002BB6
:104870001ED07B6B002B1BD0BB6B7B627B6A7A6B81
:104880001A637B6A022283F85920002303937B6A10
:10489000029307F1140301933B6B00933B687A6822
:1048A000B968F86800F050F8786A00F0D3F801E0D1
:1048B00000237B617B6918462837BD4680BD80B5E3
:1048C0008CB004AFF860B9603B601346FB80FB8896
:1048D0009B00184601F066FB78617B69002B0ED0C7
:1048E0005C2001F05FFBF861FB69002B03D0FB69E2
:1048F0007A691A6305E0786901F016FC01E000238B
:10490000FB61FB69002B17D0FB69002283F859205B
:10491000FA8800230393FB690293FB6A0193BB6A45
:1049200000933B68B968F86800F00EF8F86900F089
:1049300091F80123BB6102E04FF0FF33BB61BB691B
:1049400018462037BD4680BD80B588B000AFF860FE
:10495000B9607A603B603B6B186B7B689B001A46C2
:10496000A52101F022FD3B6B1A6B7B6803F18043AC
:10497000013B9B001344BB61BB6923F00703BB6190
:10498000BB6903F00703002B09D04FF0500383F3FA
:104990001188BFF36F8FBFF34F8F7B61FEE700235A
:1049A000FB6112E0BA68FB69134419783A6BFB6942
:1049B000134434330A461A70BA68FB6913441B78EF
:1049C000002B06D0FB690133FB61FB690F2BE9D992
:1049D00000E000BF3B6B002283F84320BB6A372B0B
:1049E00001D93723BB623B6BBA6ADA623B6BBA6AA6
:1049F000DA643B6B00221A653B6B04331846FFF701
:104A0000A0F93B6B18331846FFF79BF93B6B3A6BE9
:104A10001A61BB6AC3F138023B6B9A613B6B3A6B1C
:104A20005A623B6B00225A653B6B002283F8582088
:104A30003A68F968B86901F0D7F802463B6B1A602A
:104A4000FB6A002B02D0FB6A3A6B1A6000BF20376A
:104A5000BD4680BD80B582B000AF786001F0ACF992
:104A60002D4B1B6801332C4A13602C4B1B68002B09
:104A700009D12A4A7B681360274B1B68012B10D190
:104A800000F00CFC0DE0264B1B68002B09D1234BDA
:104A90001B68DA6A7B68DB6A9A4202D81F4A7B6825
:104AA0001360204B1B6801331E4A13601D4B1A68AC
:104AB0007B685A647B68DA6A1B4B1B689A4203D98D
:104AC0007B68DB6A184A13607B68DA6A13469B00CE
:104AD00013449B00154A1A447B6804331946104658
:104AE000FFF73BF901F096F90D4B1B68002B0ED038
:104AF0000A4B1B68DA6A7B68DB6A9A4207D20C4B66
:104B00004FF080521A60BFF34F8FBFF36F8F00BF1B
:104B10000837BD4680BD00BFBC0B0020E806002062
:104B2000C80B0020D80B0020C40B0020EC0600208E
:104B300004ED00E080B584B000AF78600023FB6036
:104B40007B68002B16D0134B1B68002B09D04FF04D
:104B5000500383F31188BFF36F8FBFF34F8FBB6098
:104B6000FEE700F07FF80021786800F0DFFC00F03D
:104B700087F8F860FB68002B07D1074B4FF0805295
:104B80001A60BFF34F8FBFF36F8F00BF1037BD4662
:104B900080BD00BFE40B002004ED00E080B58AB0CA
:104BA00004AF0023BB6000237B603A46391D07F148
:104BB00008031846FFF774F839687B68BA680292F0
:104BC00001930023009300230A4620492048FFF761
:104BD0001DFE02461F4B1A601E4B1B68002B02D0A5
:104BE00001237B6101E000237B617B69012B02D102
:104BF00000F0F0FC78617B69012B15D14FF0500378
:104C000083F31188BFF36F8FBFF34F8F3B61124B5C
:104C10004FF0FF321A60114B01221A60104B002234
:104C20001A6001F059F80DE07B69B3F1FF3F09D13B
:104C30004FF0500383F31188BFF36F8FBFF34F8F93
:104C4000FB60FEE700BF1837BD4680BDF863000873
:104C50006D520008E00B0020DC0B0020C80B002088
:104C6000C00B002080B400AF044B1B680133034A23
:104C7000136000BFBD4680BC704700BFE40B00203E
:104C800080B584B000AF0023FB600023BB60414BC4
:104C90001B68002B09D14FF0500383F31188BFF339
:104CA0006F8FBFF34F8F3B60FEE701F085F8394B04
:104CB0001B68013B374A1360364B1B68002B62D1DF
:104CC000354B1B68002B5ED02FE0344BDB68DB6874
:104CD000FB60FB6818331846FFF79AF8FB6804334B
:104CE0001846FFF795F8FB68DA6A2D4B1B689A4265
:104CF00003D9FB68DB6A2A4A1360FB68DA6A134649
:104D00009B0013449B00274A1A44FB68043319464E
:104D10001046FFF722F8FB68DA6A234B1B68DB6A50
:104D20009A4202D3214B01221A601C4B1B68002BB4
:104D3000CBD1FB68002B01D000F04AFB1C4B1B6859
:104D40007B607B68002B10D000F044F80346002BFA
:104D500002D0164B01221A607B68013B7B607B68A6
:104D6000002BF1D1124B00221A60104B1B68002B54
:104D700009D00123BB600F4B4FF080521A60BFF384
:104D80004F8FBFF36F8F01F045F8BB68184610379F
:104D9000BD4680BDE40B0020BC0B00207C0B002036
:104DA000C40B0020EC060020E8060020D00B0020F9
:104DB000CC0B002004ED00E080B483B000AF044BC6
:104DC0001B687B607B6818460C37BD4680BC70470B
:104DD000C00B002080B586B000AF00237B61514B33
:104DE0001B68002B40F08D804F4B1B6801333B61EB
:104DF0004D4A3B6913603B69002B1FD14B4B1B682D
:104E00001B68002B09D04FF0500383F31188BFF3C8
:104E10006F8FBFF34F8F3B60FEE7444B1B68FB6017
:104E2000434B1B68414A1360414AFB681360414B86
:104E30001B6801333F4A136000F0CAFA3E4B1B68FF
:104E40003A699A424ED3394B1B681B68002B01D13B
:104E5000012300E00023002B04D0374B4FF0FF323A
:104E60001A603FE0314B1B68DB68DB68BB60BB68E6
:104E70005B687B603A697B689A4203D22E4A7B6802
:104E800013602FE0BB6804331846FEF7C1FFBB6810
:104E90009B6A002B04D0BB6818331846FEF7B8FF96
:104EA000BB68DA6A254B1B689A4203D9BB68DB6A88
:104EB000224A1360BB68DA6A13469B0013449B00C6
:104EC0001F4A1A44BB68043319461046FEF745FFD3
:104ED000BB68DA6A1B4B1B68DB6A9A42B3D30123B7
:104EE0007B61B0E7174B1B68DA6A154913469B00D4
:104EF00013449B000B441B68012B07D901237B61E2
:104F000004E0114B1B6801330F4A13600F4B1B6801
:104F1000002B01D001237B617B6918461837BD4601
:104F200080BD00BFE40B0020C00B0020740B0020EC
:104F3000780B0020D40B0020DC0B0020C40B0020D9
:104F4000EC060020E8060020CC0B0020D00B00204F
:104F500080B485B000AF274B1B68002B03D0264BD5
:104F600001221A6040E0244B00221A60234B1B6888
:104F7000FB600FE0FB68002B09D14FF0500383F377
:104F80001188BFF36F8FBFF34F8F7B60FEE7FB6825
:104F9000013BFB601A49FA6813469B0013449B00CF
:104FA0000B441B68002BE5D0FA6813469B001344A2
:104FB0009B00134A1344BB60BB685B685A68BB68BC
:104FC0005A60BB685A68BB6808339A4204D1BB6810
:104FD0005B685A68BB685A60BB685B68DB68094AF3
:104FE0001360064AFB68136000BF1437BD4680BCDF
:104FF000704700BFE40B0020D00B0020C40B002042
:10500000EC060020E806002080B584B000AF786090
:1050100039607B68002B09D14FF0500383F311886E
:10502000BFF36F8FBFF34F8FFB60FEE7074B1B682B
:10503000183319467868FEF7B3FE0121386800F08E
:1050400075FA00BF1037BD4680BD00BFE8060020DE
:1050500080B586B000AFF860B9607A60FB68002B5D
:1050600009D14FF0500383F31188BFF36F8FBFF363
:105070004F8F7B61FEE70A4B1B6818331946F868AF
:10508000FEF76BFE7B68002B02D04FF0FF33BB6056
:105090007968B86800F04AFA00BF1837BD4680BD8D
:1050A000E806002080B586B000AF78607B68DB68DA
:1050B000DB683B613B69002B09D14FF0500383F360
:1050C0001188BFF36F8FBFF34F8FFB60FEE73B6923
:1050D00018331846FEF79CFE1D4B1B68002B1DD194
:1050E0003B6904331846FEF793FE3B69DA6A194BB5
:1050F0001B689A4203D93B69DB6A164A13603B6915
:10510000DA6A13469B0013449B00134A1A443B6916
:10511000043319461046FEF720FE05E03B691833BC
:1051200019460E48FEF719FE3B69DA6A0C4B1B68FC
:10513000DB6A9A4205D901237B610A4B01221A607E
:1051400001E000237B617B6918461837BD4680BDAE
:10515000E40B0020C40B0020EC0600207C0B002098
:10516000E8060020D00B002080B483B000AF786048
:10517000064B1A687B681A60054B1A687B685A6090
:1051800000BF0C37BD4680BC704700BFD40B002069
:10519000C00B002080B588B000AF786039607B68B4
:1051A000002B09D14FF0500383F31188BFF36F8FA9
:1051B000BFF34F8F3B61FEE73B68002B09D14FF0F7
:1051C000500383F31188BFF36F8FBFF34F8FFB60E2
:1051D000FEE700F0F1FD1D4B1B68BB617B685B685F
:1051E000BA69D31A7B613B681B68B3F1FF3F02D1F8
:1051F0000023FB6123E07B681A68154B1B689A4209
:1052000007D07B685B68BA699A4202D30123FB61CD
:1052100015E03B681B687A699A420BD23B681A68B2
:105220007B69D21A3B681A607868FFF79DFF0023FC
:10523000FB6104E03B6800221A600123FB6100F07F
:10524000E9FDFB6918462037BD4680BDC00B002034
:10525000D40B002080B400AF034B01221A6000BFC2
:10526000BD4680BC704700BFD00B002080B582B027
:1052700000AF786000F052F8064B1B68012BF9D99B
:10528000054B4FF080521A60BFF34F8FBFF36F8F03
:10529000F0E700BFEC06002004ED00E080B582B02E
:1052A00000AF00237B600CE07A6813469B00134438
:1052B0009B00124A13441846FEF724FD7B68013315
:1052C0007B607B68372BEFD90D48FEF71BFD0D483F
:1052D000FEF718FD0C48FEF715FD0C48FEF712FD11
:1052E0000B48FEF70FFD0B4B054A1A600A4B054AA7
:1052F0001A6000BF0837BD4680BD00BFEC06002025
:105300004C0B0020600B00207C0B0020900B002039
:10531000A80B0020740B0020780B002080B582B011
:1053200000AF19E000F048FD0F4BDB68DB687B60E5
:105330007B6804331846FEF76BFD0C4B1B68013B82
:105340000A4A13600A4B1B68013B094A136000F0CC
:1053500061FD786800F00EF8054B1B68002BE1D169
:1053600000BF0837BD4680BD900B0020BC0B00205D
:10537000A40B002080B584B000AF78607B6893F800
:105380005930002B08D17B681B6B184600F0CCFE0F
:10539000786800F0C9FE17E07B6893F85930012B5C
:1053A00003D1786800F0C0FE0EE07B6893F85930B6
:1053B000022B09D04FF0500383F31188BFF36F8F96
:1053C000BFF34F8FFB60FEE700BF1037BD4680BDC7
:1053D00080B483B000AF0E4B1B681B68002B01D15B
:1053E000012300E00023002B04D00A4B4FF0FF32D2
:1053F0001A6008E0064B1B68DB68DB687B607B6833
:105400005B68044A136000BF0C37BD4680BC704720
:10541000740B0020DC0B002080B483B000AF0B4B7A
:105420001B68002B02D101237B6008E0084B1B683E
:10543000002B02D102237B6001E000237B607B68AC
:1054400018460C37BD4680BC704700BFC80B002013
:10545000E40B002080B586B000AF78607B683B61CC
:1054600000237B617B68002B54D02D4B1B683A696D
:105470009A4209D04FF0500383F31188BFF36F8F26
:10548000BFF34F8FFB60FEE73B691B6D002B09D11B
:105490004FF0500383F31188BFF36F8FBFF34F8F2B
:1054A000BB60FEE73B691B6D5A1E3B691A653B6991
:1054B000DA6A3B69DB6C9A422CD03B691B6D002B8E
:1054C00028D13B6904331846FEF7A2FC3B69DA6C2D
:1054D0003B69DA623B69DB6AC3F138023B699A6176
:1054E0003B69DA6A0F4B1B689A4203D93B69DB6A56
:1054F0000C4A13603B69DA6A13469B0013449B0015
:10550000094A1A443B69043319461046FEF725FC44
:1055100001237B617B6918461837BD4680BD00BFFB
:10552000E8060020C40B0020EC06002080B584B003
:1055300000AF78603960214B1B68FB60204B1B6813
:1055400004331846FEF764FC7B68B3F1FF3F0AD1D1
:105550003B68002B07D01A4B1B68043319461948C7
:10556000FEF7FBFB26E0FA687B681344BB60144B34
:105570001B68BA685A60BA68FB689A4209D2124B33
:105580001A680F4B1B68043319461046FEF708FCD7
:1055900010E00E4B1A680A4B1B680433194610467C
:1055A000FEF7FEFB0A4B1B68BA689A4202D2084A11
:1055B000BB68136000BF1037BD4680BDC00B002024
:1055C000E8060020A80B0020780B0020740B0020B8
:1055D000DC0B002080B58AB004AF00237B6100F0B3
:1055E000C3FA1C4B1B68002B21D00023FB60002357
:1055F000BB603A1D07F1080107F10C031846FEF7DE
:1056000067FB7968BB68FA680292019302230093F2
:1056100000230A4610491148FFF7F8F80246104BDC
:105620001A600F4B1B68002B01D001237B617B6943
:10563000002B09D14FF0500383F31188BFF36F8F14
:10564000BFF34F8F3B61FEE77B6918461837BD46B5
:1056500080BD00BF180C0020006400087D570008C2
:105660001C0C002080B58AB000AFF860B9607A6089
:105670003B6000237B62FB68002B09D14FF0500395
:1056800083F31188BFF36F8FBFF34F8F3B62FEE749
:10569000194B1B68002B2AD0BB683B617B687B6180
:1056A000FB68BB61BB68052B18DCFFF7B5FE034642
:1056B000022B09D1104B186807F1100100233A6B37
:1056C000FEF7CEFC786212E00B4B186807F1100170
:1056D00000230022FEF7C4FC786208E0064B18683D
:1056E00007F1100100233A68FEF7B4FD78627B6A87
:1056F00018462837BD4680BD180C002080B588B0FC
:1057000002AF786039601C4B1B68DB68DB687B612B
:105710007B6904331846FEF77BFB7B69DB69012B51
:1057200021D17B699A697B68D1187B683A6878696E
:1057300000F0C8F80346002B15D000230093002387
:105740007A6800217869FFF78DFF38613B69002B8B
:1057500009D14FF0500383F31188BFF36F8FBFF36C
:105760004F8FFB60FEE77B695B6A7869984700BFF3
:105770001837BD4680BD00BF100C002080B584B036
:1057800000AF786007F10803184600F057F8F8609A
:10579000BB681946F86800F003F800F0D5F8F1E7A7
:1057A00080B584B000AF78603960FFF75BFA07F12D
:1057B0000803184600F066F8F860BB68002B30D18B
:1057C0003B68002B0AD17A68FB689A4206D8FFF73B
:1057D00057FAF9687868FFF791FF24E03B68002BDF
:1057E00008D0134B1B681B68002B0CBF0123002340
:1057F000DBB23B600F4B18687A68FB68D31A3A68D3
:105800001946FEF7CFFFFFF73BFA0346002B0AD1FC
:10581000094B4FF080521A60BFF34F8FBFF36F8F69
:1058200001E0FFF72DFA00BF1037BD4680BD00BF75
:10583000140C0020180C002004ED00E080B485B0AA
:1058400000AF78600E4B1B681B68002B0CBF012358
:105850000023DBB21A467B681A607B681B68002B4A
:1058600005D1074B1B68DB681B68FB6001E0002368
:10587000FB60FB6818461437BD4680BC704700BF0C
:10588000100C002080B584B000AF7860FFF794FA68
:10589000F8600B4B1B68FA689A4205D200F004F9D5
:1058A0007B6801221A6002E07B6800221A60044AC9
:1058B000FB681360FB6818461037BD4680BD00BF0B
:1058C000200C002080B586B000AFF860B9607A6027
:1058D0003B6000237B61FB68BA685A60FB68FA682A
:1058E0001A61BA687B689A4212D87A683B68D21A01
:1058F000FB689B699A4202D301237B611BE0104B3A
:105900001A68FB68043319461046FEF749FA12E09C
:105910007A683B689A4206D2BA683B689A4202D3D8
:1059200001237B6107E0074B1A68FB6804331946C3
:105930001046FEF735FA7B6918461837BD4680BD1C
:10594000140C0020100C002080B58EB002AF99E03E
:105950007B68002B17DA3B1D0433FB62FB6A002BCC
:1059600009D14FF0500383F31188BFF36F8FBFF35A
:105970004F8FFB61FEE7FB6A1B68FA6A5068FA6AA0
:105980009268114698477B68002B7ADBFB68BB6204
:10599000BB6A5B69002B04D0BB6A04331846FEF770
:1059A00037FA3B461846FFF76DFF78627B68092B94
:1059B00068D801A252F823F0E1590008E159000823
:1059C000E1590008855A00083B5A0008715A00083E
:1059D000E1590008E1590008855A00083B5A0008BF
:1059E000BA68BB6A9B69D118BB687A6AB86AFFF764
:1059F00069FF0346002B45D0BB6A5B6AB86A9847CB
:105A0000BB6ADB69012B3DD1BA68BB6A9B691A444A
:105A10000023009300230021B86AFFF723FE3862B9
:105A20003B6A002B2ED14FF0500383F31188BFF354
:105A30006F8FBFF34F8FBB61FEE7BA68BB6A9A6195
:105A4000BB6A9B69002B09D14FF0500383F3118887
:105A5000BFF36F8FBFF34F8F7B61FEE7BB6A9A691D
:105A60007B6AD1187B6A7A6AB86AFFF72BFF09E074
:105A7000BB6A93F82C30002B04D1B86A00F054FBB9
:105A800000E000BF074B1B68391D00221846FEF7D7
:105A900075FC0346002B7FF45BAF00BF3037BD467B
:105AA00080BD00BF180C002080B588B002AF44E074
:105AB0002B4B1B68DB681B683B61294B1B68DB6851
:105AC000DB68FB60FB6804331846FEF7A1F9FB684E
:105AD0005B6AF8689847FB68DB69012B2DD1FB688E
