:020000040800F2
:10000000005000205D0A0008B1090008BD09000881
:10001000C3090008C9090008CF0900080000000052
:10002000000000000000000000000000114E000869
:10003000D509000800000000E14F00082950000821
:10004000A50A0008A50A0008A50A0008A50A0008D4
:10005000A50A0008A50A0008A50A0008A50A0008C4
:10006000A50A0008A50A0008A50A0008A50A0008B4
:10007000A50A0008A50A0008A50A0008A50A0008A4
:10008000A50A0008A50A0008A50A0008A50A000894
:10009000A50A0008A50A0008A50A0008A50A000884
:1000A000A50A0008A50A0008A50A0008A50A000874
:1000B000A50A0008A50A0008E1090008A50A000829
:1000C000A50A0008A50A0008A50A0008A50A000854
:1000D000A50A0008A50A0008A50A0008A50A000844
:1000E000A50A0008A50A0008A50A000800000000EB
:1000F0000000000000000000000000000000000000
:0C01000000000000000000005FF808F1A3
:1001100010B5054C237833B9044B13B10448AFF341
:1001200000800123237010BD10000020000000009B
:100130003C55000808B5034B1BB103490348AFF316
:10014000008008BD00000000140000203C5500089D
:1001500080F0004002E000BF81F0004142001FBF7C
:100160005FEA410392EA030F7FEA226C7FEA236C85
:100170006AD04FEA1262D2EB1363C1BFD21841407A
:1001800048404140B8BF5B42192B88BF704710F010
:10019000004F40F4000020F07F4018BF404211F0B3
:1001A000004F41F4000121F07F4118BF494292EA1B
:1001B000030F3FD0A2F1010241FA03FC10EB0C0047
:1001C000C3F1200301FA03F100F0004302D54942D4
:1001D00060EB4000B0F5000F13D3B0F1807F06D381
:1001E00040084FEA310102F10102FE2A51D2B1F179
:1001F000004F40EBC25008BF20F0010040EA03006E
:100200007047490040EB000010F4000FA2F101021A
:10021000EDD1B0FA80FCACF1080CB2EB0C0200FAA4
:100220000CF0AABF00EBC25052421843BCBFD040F2
:100230001843704792F0000F81F4000106BF80F46C
:1002400000000132013BB5E74FEA41037FEA226C2F
:1002500018BF7FEA236C21D092EA030F04D092F0FA
:10026000000F08BF0846704790EA010F1CBF00202E
:10027000704712F07F4F04D1400028BF40F000408B
:10028000704712F100723CBF00F50000704700F0AB
:10029000004343F0FE4040F4000070477FEA2262D2
:1002A00016BF08467FEA23630146420206BF5FEAA3
:1002B000412390EA010F40F4800070474FF00003A3
:1002C00004E000BF10F0004348BF40425FEA000C6A
:1002D00008BF704743F0964301464FF000001CE012
:1002E00050EA010208BF70474FF000030AE000BF68
:1002F00050EA010208BF704711F0004302D54042A6
:1003000061EB41015FEA010C02BF84460146002017
:1003100043F0B64308BFA3F18053A3F50003BCFA32
:100320008CF2083AA3EBC25310DB01FA02FC6344DF
:1003300000FA02FCC2F12002BCF1004F20FA02F2E6
:1003400043EB020008BF20F00100704702F12002D9
:1003500001FA02FCC2F1200250EA4C0021FA02F23A
:1003600043EB020008BF20EADC70704780B500AFA5
:1003700000F09AFB00F02CF800F09EF800F06EF808
:1003800000F0E6F84FF47A7000F0C0FB02F008FCD1
:10039000094A0021094802F069FC0246084B1A602C
:1003A000084A0021084802F061FC0246074B1A6027
:1003B00002F028FCFEE700BF905500089D070008EA
:1003C000AC190020B4550008C50700089819002092
:1003D00080B590B000AF07F118032822002118461D
:1003E00005F0A3F83B1D00221A605A609A60DA609B
:1003F0001A610123BB614FF48033FB6100233B6230
:100400000123BB6202237B634FF48033BB634FF451
:10041000E013FB6307F11803184601F091FD034652
:10042000002B01D000F0F0F90F237B600223BB60AA
:100430000023FB604FF480633B6100237B613B1D25
:100440000221184601F0FCFF0346002B01D000F00A
:10045000DBF900BF4037BD4680BD000080B500AF6E
:10046000124B134A1A60114B124A5A600F4B00226A
:100470009A600E4B0022DA600C4B4FF480421A61F6
:100480000A4B00225A61094B00229A61074B002255
:10049000DA61064B00221A62044800F0C3FD0346ED
:1004A000002B01D000F0B0F900BF80BD441900203E
:1004B00000540040A086010080B588B000AF07F16D
:1004C000100300221A605A609A60DA601E4B9B6922
:1004D0001D4A43F0200393611B4B9B6903F02003EB
:1004E000FB60FB68184B9B69174A43F00403936158
:1004F000154B9B6903F00403BB60BB68124B9B69FF
:10050000114A43F0080393610F4B9B6903F0080302
:100510007B607B6800224FF440710C4800F052FD74
:100520004FF440733B6101237B610023BB610223D5
:10053000FB6107F110031946044800F0E9FB00BF16
:100540002037BD4680BD00BF00100240000C0140B6
:1005500080B586B004AF4FF47A7302930123019300
:10056000FB1D0093012375226821244800F07CFFC5
:100570000023BB71FB79682B3BD10023BB714FF487
:100580007A73029301230193BB1D009301236B2215
:1005900068211A4800F06EFE0723BB714FF47A738E
:1005A000029301230193BB1D0093012319226821AB
:1005B000124800F05FFE0023BB714FF47A73029380
:1005C00001230193BB1D009301231C2268210B48CA
:1005D00000F050FE0023BB714FF47A7302930123A5
:1005E0000193BB1D009301231B226821034800F0E7
:1005F00041FE00BF0837BD4680BD00BF4419002042
:1006000080B586B004AF4FF48043FB804FF47A731B
:100610000293062301933B46009301233B2268216A
:10062000244800F021FF3B781B021AB27B781BB2F2
:1006300013431AB2204B1A80BB781B021AB2FB7804
:100640001BB213431AB21D4B1A803B791B021AB21C
:100650007B791BB213431AB2194B1A80164BB3F9AC
:1006600000301A46FB8892FBF3F31846FFF72AFE88
:100670000246144B1A60114BB3F900301A46FB883E
:1006800092FBF3F31846FFF71DFE02460E4B1A606D
:100690000B4BB3F900301A46FB8892FBF3F3184674
:1006A000FFF710FE0246094B1A6000BF0837BD462F
:1006B00080BD00BF441900202C0000202E00002027
:1006C00030000020A41900209C190020A819002047
:1006D00080B586B004AF8323FB804FF47A73029316
:1006E000062301933B4600930123432268212448BB
:1006F00000F0BAFE3B781B021AB27B781BB21343A0
:100700001AB2204B1A80BB781B021AB2FB781BB2BC
:1007100013431AB21C4B1A803B791B021AB27B7925
:100720001BB213431AB2194B1A80164BB3F900309F
:100730001A46FB8892FBF3F31846FFF7C3FD024607
:10074000134B1A60104BB3F900301A46FB8892FB2A
:10075000F3F31846FFF7B6FD02460E4B1A600B4B3B
:10076000B3F900301A46FB8892FBF3F31846FFF703
:10077000A9FD0246084B1A6000BF0837BD4680BD80
:1007800044190020320000203400002036000020F0
:1007900040190020A0190020B019002080B582B0B7
:1007A00000AF78604FF40071054800F023FCFFF7BC
:1007B0008FFFFFF725FF4FF4167002F001FBF1E702
:1007C000000C014080B582B000AF78604FF48071BA
:1007D000034800F00FFC4FF4FA7002F0F1FAF5E76D
:1007E000000C014080B582B000AF78607B681B6868
:1007F000044A934201D100F06DF900BF0837BD46AD
:1008000080BD00BF0008004080B400AF00BFBD46FF
:1008100080BC704780B584B000AF184B9B69174A05
:1008200043F001039361154B9B6903F00103BB6027
:10083000BB68124BDB69114A43F08053D3610F4B05
:10084000DB6903F080537B607B6800220F216FF02F
:10085000010000F032FA0A4B5B68FB60FB6823F092
:10086000E063FB60FB6843F00073FB60044AFB68D5
:10087000536000BF1037BD4680BD00BF001002406E
:100880000000014080B588B000AF786007F1100328
:1008900000221A605A609A60DA607B681B68154A09
:1008A000934223D1144B9B69134A43F0080393618D
:1008B000114B9B6903F00803FB60FB68C0233B619D
:1008C00012237B610323FB6107F1100319460B48D8
:1008D00000F01EFA084BDB69074A43F40013D361AA
:1008E000054BDB6903F40013BB60BB6800BF203716
:1008F000BD4680BD0054004000100240000C014085
:1009000080B58CB000AF78600023FB620023BB622F
:10091000002279681E2000F0D0F91E2000F0E9F9CD
:100920001F4BDB691E4A43F00403D3611C4BDB6998
:1009300003F00403FB60FB6807F1100207F11403E6
:100940001146184601F0E6FE01F0D0FE03465B00BA
:10095000FB62FB6A134AA2FB03239B0C013BBB62B5
:10096000114B124A1A60104B40F2E732DA600E4A1D
:10097000BB6A53600C4B00221A610B4B00229A6039
:10098000094801F015FF0346002B04D1064801F089
:1009900043FF034600E0012318463037BD4680BDC3
:1009A0000010024083DE1B43B41900200008004001
:1009B00080B400AF00BFBD4680BC704780B400AFBC
:1009C000FEE780B400AFFEE780B400AFFEE780B47E
:1009D00000AFFEE780B400AF00BFBD4680BC7047EB
:1009E00080B500AF024801F03AFF00BF80BD00BFF4
:1009F000B419002080B400AF154B1B68144A43F0B3
:100A000001031360124B5A681149124B13404B609B
:100A10000F4B1B680E4A23F0847323F4803313605A
:100A20000B4B1B680A4A23F480231360084B5B6856
:100A3000074A23F4FE035360054B4FF41F029A60EC
:100A4000054B4FF000629A6000BFBD4680BC704706
:100A5000001002400000FFF800ED00E0002103E07C
:100A60000B4B5B58435004310A480B4B42189A42D7
:100A7000F6D30A4A02E0002342F8043B084B9A42AC
:100A8000F9D3FFF7B7FF04F021FDFFF76FFC7047C4
:100A9000F855000800000020100000201000002081
:100AA000381A0020FEE7000080B500AF084B1B6835
:100AB000074A43F010031360032000F0F3F800200E
:100AC000FFF71EFFFFF7A6FE0023184680BD00BFFC
:100AD0000020024080B400AF054B1B781A46054B3E
:100AE0001B681344034A136000BFBD4680BC7047B7
:100AF00008000020F419002080B400AF024B1B68EE
:100B00001846BD4680BC7047F419002080B584B0FB
:100B100000AF7860FFF7F0FFB8607B68FB60FB68B0
:100B2000B3F1FF3F05D0094B1B781A46FB6813440D
:100B3000FB6000BFFFF7E0FF0246BB68D31AFA680C
:100B40009A42F7D800BF1037BD4680BD080000208C
:100B500080B485B000AF78607B6803F00703FB606A
:100B60000C4BDB68BB60BA684FF6FF031340BB60F9
:100B7000FB681A02BB68134343F0BF6343F40033BE
:100B8000BB60044ABB68D36000BF1437BD4680BC5D
:100B9000704700BF00ED00E080B400AF044BDB689D
:100BA0001B0A03F007031846BD4680BC704700BF10
:100BB00000ED00E080B483B000AF0346FB7197F90D
:100BC0000730002B0BDBFB7903F01F02064997F976
:100BD00007305B09012000FA02F241F8232000BF30
:100BE0000C37BD4680BC704700E100E080B483B0A4
:100BF00000AF03463960FB7197F90730002B0ADB21
:100C00003B68DAB20C4997F907301201D2B20B44B3
:100C100083F800230AE03B68DAB20849FB7903F065
:100C20000F03043B1201D2B20B441A7600BF0C37FB
:100C3000BD4680BC704700BF00E100E000ED00E071
:100C400080B489B000AFF860B9607A60FB6803F0E7
:100C50000703FB61FB69C3F10703042B28BF0423CF
:100C6000BB61FB690433062B02D9FB69033B00E03F
:100C700000237B614FF0FF32BB6902FA03F3DA43D2
:100C8000BB681A407B699A404FF0FF317B6901FADB
:100C900003F3D9437B680B40134318462437BD4602
:100CA00080BC704780B582B000AF78607868FFF78D
:100CB0004FFF00BF0837BD4680BD80B586B000AF8E
:100CC0000346B9607A60FB7300237B61FFF764FF22
:100CD00078617A68B9687869FFF7B2FF024697F9D8
:100CE0000F3011461846FFF781FF00BF1837BD4689
:100CF00080BD80B582B000AF0346FB7197F9073025
:100D00001846FFF757FF00BF0837BD4680BD0000FB
:100D100080B48BB000AF7860396000237B62002321
:100D20003B6227E101227B6A02FA03F3FB613B6825
:100D30001B68FA691340BB61BA69FB699A4240F0CB
:100D400016813B685B68122B34D0122B0DD8022B16
:100D50002BD0022B04D8002B31D0012B1CD048E023
:100D6000032B43D0112B1BD043E0894A934226D05A
:100D7000874A934206D8874A934220D0864A9342B4
:100D80001DD036E0854A934219D0854A934216D049
:100D9000844A934213D02CE03B68DB683B6228E036
:100DA0003B68DB6804333B6223E03B68DB68083365
:100DB0003B621EE03B68DB680C333B6219E03B683A
:100DC0009B68002B02D104233B6212E03B689B68C6
:100DD000012B05D108233B627B68FA691A6108E0A0
:100DE00008233B627B68FA695A6102E000233B6298
:100DF00000BFBB69FF2B01D87B6801E07B6804332F
:100E00007B61BB69FF2B02D87B6A9B0002E07B6A97
:100E1000083B9B003B617B691A680F213B6901FA23
:100E200003F3DB431A40396A3B6901FA03F31A43BF
:100E30007B691A603B685B6803F08053002B00F00D
:100E40009680594B9B69584A43F001039361564B76
:100E50009B6903F00103BB60BB68544A7B6A9B0833
:100E6000023352F82330FB607B6A03F003039B00DC
:100E70000F2202FA03F3DB43FA681340FB607B683E
:100E80004B4A934213D07B684A4A93420DD07B6809
:100E9000494A934207D07B68484A934201D10323D1
:100EA00006E0042304E0022302E0012300E0002323
:100EB0007A6A02F0030292009340FA681343FB60DF
:100EC0003A497B6A9B080233FA6841F823203B6861
:100ED0005B6803F48033002B06D0394B1A6838491D
:100EE000BB6913430B6006E0354B1A68BB69DB43F3
:100EF000334913400B603B685B6803F40033002BFD
:100F000006D02F4B5A682E49BB6913434B6006E04D
:100F10002B4B5A68BB69DB43294913404B603B6844
:100F20005B6803F48013002B06D0254B9A68244994
:100F3000BB6913438B6006E0214B9A68BB69DB43B6
:100F40001F4913408B603B685B6803F40013002B60
:100F500006D01B4BDA681A49BB691343CB6006E025
:100F6000174BDA68BB69DB4315491340CB607B6ADA
:100F700001337B623B681A687B6A22FA03F3002B19
:100F80007FF4D0AE00BF2C37BD4680BC704700BF99
:100F9000000021100000111000001210000031109C
:100FA000000032100000221000100240000001403A
:100FB00000080140000C01400010014000140140F5
:100FC0000004014080B483B000AF78600B467B80A2
:100FD00013467B707B78002B03D07A887B681A617C
:100FE00003E07B881A047B681A6100BF0C37BD469A
:100FF00080BC704780B483B000AF78600B467B80C4
:101000007B68DA687B881340002B03D07A887B6882
:101010005A6102E07A887B681A6100BF0C37BD46CE
:1010200080BC704780B584B000AF78607B68002BCF
:1010300001D101230FE17B6893F83D30DBB2002B37
:1010400006D17B68002283F83C207868FFF71AFC01
:101050007B68242283F83D207B681B681A687B68C4
:101060001B6822F001021A6001F040FBF8607B6807
:101070005B687B4A934207D8FB687A4A934294BFE5
:1010800001230023DBB206E0FB68774A934294BF5A
:1010900001230023DBB2002B01D00123DBE0FB683E
:1010A000724AA2FB03239B0CBB607B681B685B68D6
:1010B00023F03F017B681B68BA680A435A607B686B
:1010C0001B681B6A23F03F017B685B68644A93429C
:1010D00002D8BB68013309E0BB684FF4967202FB8B
:1010E00003F3634AA2FB03239B0901337A68126866
:1010F0000B4313627B681B68DB6923F44F4222F0C9
:10110000FF027B685B6856498B420DD8FB68591E0D
:101110007B685B685B00B1FBF3F30133C3F30B0344
:10112000042B38BF04234FE07B689B68002B11D150
:10113000FB68581E7B6859680B465B000B44B0FB8C
:10114000F3F30133C3F30B03002B0CBF0123002384
:10115000DBB212E0FB68581E7B6859680B469B00A7
:101160000B4499000B44B0FBF3F30133C3F30B03BF
:10117000002B0CBF01230023DBB2002B01D0012385
:1011800022E07B689B68002B0ED1FB68581E7B68B1
:1011900059680B465B000B44B0FBF3F30133C3F318
:1011A0000B0343F400430FE0FB68581E7B6859684B
:1011B0000B469B000B4499000B44B0FBF3F3013347
:1011C000C3F30B0343F44043796809681343CB61CD
:1011D0007B681B681B6823F0C0017B68DA697B6849
:1011E0001B6A1A437B681B680A431A607B681B688A
:1011F0009B6823F4034323F0FF037A6811697A683C
:10120000D26811437A6812680B4393607B681B684D
:10121000DB6823F0FF017B685A697B689B691A438E
:101220007B681B680A43DA607B681B681A687B6806
:101230001B6842F001021A607B6800221A647B6816
:10124000202283F83D207B6800221A637B680022FD
:1012500083F83E20002318461037BD4680BD00BFEE
:10126000A08601007F841E00FF083D0083DE1B4333
:10127000D34D621080B588B002AFF86008461146C1
:101280001A4603467B810B463B811346FB80FFF7E2
:1012900033FC7861FB6893F83D30DBB2202B40F0E3
:1012A000D9807B690093192301226D49F86800F009
:1012B0006BFC0346002B01D00223CCE0FB6893F8C3
:1012C0003C30012B01D10223C5E0FB68012283F8E9
:1012D0003C20FB681B681B6803F00103012B07D04F
:1012E000FB681B681A68FB681B6842F001021A6001
:1012F000FB681B681A68FB681B6822F400621A60AE
:10130000FB68212283F83D20FB68402283F83E20C1
:10131000FB6800221A64FB683A6A5A62FB68BA8C5E
:101320005A85FB685B8D9AB2FB681A85FB684D4A4B
:10133000DA62F8883A8979897B690193BB6A0093FC
:101340000346F86800F0C6FA0346002B52D001238A
:1013500081E07A69B96AF86800F0ECFC0346002B7A
:101360000DD0FB681B6C042B07D1FB681B681A6847
:10137000FB681B6842F400721A6001236BE0FB6893
:101380005B6A1A78FB681B681A61FB685B6A5A1C07
:10139000FB685A62FB681B8D013B9AB2FB681A8599
:1013A000FB685B8D9BB2013B9AB2FB685A85FB6878
:1013B0001B685B6903F00403042B1BD1FB681B8DC6
:1013C000002B17D0FB685B6A1A78FB681B681A61F0
:1013D000FB685B6A5A1CFB685A62FB681B8D013B09
:1013E0009AB2FB681A85FB685B8D9BB2013B9AB28F
:1013F000FB685A85FB681B8D002BAAD17A69B96AF4
:10140000F86800F0D8FC0346002B0DD0FB681B6C7D
:10141000042B07D1FB681B681A68FB681B6842F441
:1014200000721A60012316E0FB681B681A68FB68EB
:101430001B6842F400721A60FB68202283F83D208A
:10144000FB68002283F83E20FB68002283F83C20E2
:10145000002300E0022318461837BD4680BD00BFB8
:10146000020010000000FFFF80B58CB002AFF860F2
:10147000084611461A4603467B810B463B811346BC
:10148000FB80FFF739FB7862FB6893F83D30DBB2F5
:10149000202B40F018827B6A009319230122814996
:1014A000F86800F071FB0346002B01D002230BE229
:1014B000FB6893F83C30012B01D1022304E2FB6866
:1014C000012283F83C20FB681B681B6803F00103C2
:1014D000012B07D0FB681B681A68FB681B6842F089
:1014E00001021A60FB681B681A68FB681B6822F41B
:1014F00000621A60FB68222283F83D20FB684022CC
:1015000083F83E20FB6800221A64FB683A6B5A623B
:10151000FB68BA8E5A85FB685B8D9AB2FB681A85A8
:10152000FB68614ADA62F8883A8979897B6A0193B3
:10153000BB6B00930346F86800F056FA0346002B95
:1015400001D00123C0E1FB681B8D002B13D10023C8
:101550003B62FB681B685B693B62FB681B689B69BD
:101560003B623B6AFB681B681A68FB681B6842F4B5
:1015700000721A6094E1FB681B8D012B1DD1FB6882
:101580001B681A68FB681B6822F480621A6072B6D6
:101590000023FB61FB681B685B69FB61FB681B68E0
:1015A0009B69FB61FB69FB681B681A68FB681B6829
:1015B00042F400721A6062B672E1FB681B8D022B66
:1015C0001DD1FB681B681A68FB681B6842F4006247
:1015D0001A6072B60023BB61FB681B685B69BB6164
:1015E000FB681B689B69BB61BB69FB681B681A6869
:1015F000FB681B6822F480621A6062B650E1FB68E7
:101600001B681A68FB681B6842F480621A6000233A
:101610007B61FB681B685B697B61FB681B689B697E
:101620007B617B693CE1FB681B8D032B00F2F5803D
:10163000FB681B8D012B23D17A6AB96BF86800F027
:10164000FBFB0346002B01D001233DE1FB681B6837
:101650001A69FB685B6AD2B21A70FB685B6A5A1C33
:10166000FB685A62FB681B8D013B9AB2FB681A85C6
:10167000FB685B8D9BB2013B9AB2FB685A850FE118
:10168000FB681B8D022B50D17B6A0093BB6B002241
:101690000649F86800F078FA0346002B08D00123C9
:1016A00012E100BF020010000000FFFF0400010073
:1016B00072B6FB681B681A68FB681B6842F400720C
:1016C0001A60FB681B681A69FB685B6AD2B21A7001
:1016D000FB685B6A5A1CFB685A62FB681B8D013B06
:1016E0009AB2FB681A85FB685B8D9BB2013B9AB28C
:1016F000FB685A8562B6FB681B681A69FB685B6AFF
:10170000D2B21A70FB685B6A5A1CFB685A62FB68AB
:101710001B8D013B9AB2FB681A85FB685B8D9BB2FF
:10172000013B9AB2FB685A85BAE07B6A0093BB6BB7
:1017300000226749F86800F027FA0346002B01D021
:101740000123C1E0FB681B681A68FB681B6822F470
:1017500080621A6072B6FB681B681A69FB685B6A74
:10176000D2B21A70FB685B6A5A1CFB685A62FB684B
:101770001B8D013B9AB2FB681A85FB685B8D9BB29F
:10178000013B9AB2FB685A857B6A0093BB6B0022CF
:101790004F49F86800F0F8F90346002B01D0012307
:1017A00092E0FB681B681A68FB681B6842F40072D1
:1017B0001A60FB681B681A69FB685B6AD2B21A7010
:1017C000FB685B6A5A1CFB685A62FB681B8D013B15
:1017D0009AB2FB681A85FB685B8D9BB2013B9AB29B
:1017E000FB685A8562B6FB681B681A69FB685B6A0E
:1017F000D2B21A70FB685B6A5A1CFB685A62FB68BB
:101800001B8D013B9AB2FB681A85FB685B8D9BB20E
:10181000013B9AB2FB685A8542E07A6AB96BF86874
:1018200000F00AFB0346002B01D001234CE0FB68CB
:101830001B681A69FB685B6AD2B21A70FB685B6A44
:101840005A1CFB685A62FB681B8D013B9AB2FB680D
:101850001A85FB685B8D9BB2013B9AB2FB685A8587
:10186000FB681B685B6903F00403042B18D1FB6859
:101870001B681A69FB685B6AD2B21A70FB685B6A04
:101880005A1CFB685A62FB681B8D013B9AB2FB68CD
:101890001A85FB685B8D9BB2013B9AB2FB685A8547
:1018A000FB681B8D002B7FF4BEAEFB68202283F803
:1018B0003D20FB68002283F83E20FB68002283F86D
:1018C0003C20002300E0022318462837BD4680BD97
:1018D0000400010080B588B002AFF86008461146E8
:1018E0001A4603467B810B463B811346FB80FB680F
:1018F0001B681A68FB681B6842F480721A607B6A76
:1019000000933B6A00224FF00111F86800F03CF9A7
:101910000346002B01D001235FE07B89DBB21A462E
:10192000FB681B6802F0FE021A617B6A3A6A2D4965
:10193000F86800F080F90346002B01D001234CE049
:1019400000237B61FB681B685B697B61FB681B682C
:101950009B697B617B697A6A396AF86800F0EAF909
:101960000346002B0DD0FB681B6C042B07D1FB68D2
:101970001B681A68FB681B6842F400721A60012336
:101980002BE0FB88012B05D13B89DAB2FB681B6891
:101990001A6121E03B891B0A9BB2DAB2FB681B6823
:1019A0001A617A6A396AF86800F0C4F90346002BB4
:1019B0000DD0FB681B6C042B07D1FB681B681A68F1
:1019C000FB681B6842F400721A60012305E03B8942
:1019D000DAB2FB681B681A61002318461837BD4647
:1019E00080BD00BF0200010080B588B002AFF86082
:1019F000084611461A4603467B810B463B81134637
:101A0000FB80FB681B681A68FB681B6842F48062F5
:101A10001A60FB681B681A68FB681B6842F48072D6
:101A20001A607B6A00933B6A00224FF00111F8684C
:101A300000F0AAF80346002B01D001239EE07B8929
:101A4000DBB21A46FB681B6802F0FE021A617B6A71
:101A50003A6A4C49F86800F0EEF80346002B01D0D2
:101A600001238BE000237B61FB681B685B697B6162
:101A7000FB681B689B697B617B697A6A396AF868D5
:101A800000F058F90346002B0DD0FB681B6C042BAB
:101A900007D1FB681B681A68FB681B6842F4007278
:101AA0001A6001236AE0FB88012B05D13B89DAB279
:101AB000FB681B681A6121E03B891B0A9BB2DAB202
:101AC000FB681B681A617A6A396AF86800F032F9B3
:101AD0000346002B0DD0FB681B6C042B07D1FB6861
:101AE0001B681A68FB681B6842F400721A600123C5
:101AF00044E03B89DAB2FB681B681A617A6A396A8A
:101B0000F86800F017F90346002B0DD0FB681B6C3A
:101B1000042B07D1FB681B681A68FB681B6842F43A
:101B200000721A60012329E0FB681B681A68FB68D1
:101B30001B6842F480721A607B6A00933B6A002241
:101B40004FF00111F86800F01FF80346002B01D098
:101B5000012313E07B89DBB243F00103DAB2FB68B7
:101B60001B681A617B6A3A6A0649F86800F063F8F4
:101B70000346002B01D0012300E00023184618374C
:101B8000BD4680BD0200010080B584B000AFF860A2
:101B9000B9603B601346FB7125E03B68B3F1FF3F42
:101BA00021D0FEF7A9FF0246BB69D31A3A689A42D0
:101BB00002D33B68002B16D1FB6800221A63FB6836
:101BC000202283F83D20FB68002283F83E20FB683A
:101BD0001B6C43F02002FB681A64FB68002283F848
:101BE0003C20012323E0BB681B0CDBB2012B0DD191
:101BF000FB681B685B69DA43BB6813409BB2002B30
:101C00000CBF01230023DBB21A460CE0FB681B6803
:101C10009B69DA43BB6813409BB2002B0CBF0123C6
:101C20000023DBB21A46FB799A42B6D0002318464D
:101C30001037BD4680BD80B584B000AFF860B96094
:101C40007A603B6051E0FB681B685B6903F480636A
:101C5000B3F5806F23D1FB681B681A68FB681B68AB
:101C600042F400721A60FB681B686FF480625A616C
:101C7000FB6800221A63FB68202283F83D20FB6882
:101C8000002283F83E20FB681B6C43F00402FB68D3
:101C90001A64FB68002283F83C20012346E07B683D
:101CA000B3F1FF3F21D0FEF727FF02463B68D31A6E
:101CB0007A689A4202D37B68002B16D1FB68002217
:101CC0001A63FB68202283F83D20FB68002283F81A
:101CD0003E20FB681B6C43F02002FB681A64FB6823
:101CE000002283F83C20012320E0BB681B0CDBB200
:101CF000012B0CD1FB681B685B69DA43BB6813409E
:101D00009BB2002B14BF01230023DBB20BE0FB6866
:101D10001B689B69DA43BB6813409BB2002B14BF5E
:101D200001230023DBB2002B8DD10023184610378E
:101D3000BD4680BD80B584B000AFF860B9607A6000
:101D40002DE0F86800F0CEF80346002B01D0012307
:101D50002DE0BB68B3F1FF3F21D0FEF7CDFE024678
:101D60007B68D31ABA689A4202D3BB68002B16D19B
:101D7000FB6800221A63FB68202283F83D20FB6881
:101D8000002283F83E20FB681B6C43F02002FB68B6
:101D90001A64FB68002283F83C20012307E0FB68FB
:101DA0001B685B6903F08003802BCAD100231846AF
:101DB0001037BD4680BD80B584B000AFF860B96013
:101DC0007A602DE0F86800F08DF80346002B01D012
:101DD00001232DE0BB68B3F1FF3F21D0FEF78CFE5D
:101DE00002467B68D31ABA689A4202D3BB68002BBA
:101DF00016D1FB6800221A63FB68202283F83D207D
:101E0000FB68002283F83E20FB681B6C43F0200235
:101E1000FB681A64FB68002283F83C20012307E07A
:101E2000FB681B685B6903F00403042BCAD1002321
:101E300018461037BD4680BD80B584B000AFF8604D
:101E4000B9607A6042E0FB681B685B6903F01003CD
:101E5000102B19D1FB681B686FF010025A61FB68E8
:101E600000221A63FB68202283F83D20FB680022D1
:101E700083F83E20FB681A6CFB681A64FB6800223A
:101E800083F83C20012329E0FEF736FE02467B68FA
:101E9000D31ABA689A4202D3BB68002B16D1FB68EA
:101EA00000221A63FB68202283F83D20FB68002291
:101EB00083F83E20FB681B6C43F02002FB681A6429
:101EC000FB68002283F83C20012307E0FB681B68C5
:101ED0005B6903F04003402BB5D10023184610374F
:101EE000BD4680BD80B483B000AF78607B681B685E
:101EF0005B6903F48063B3F5806F1BD17B681B685B
:101F00006FF480625A617B6800221A637B6820222A
:101F100083F83D207B68002283F83E207B681B6CA1
:101F200043F004027B681A647B68002283F83C203B
:101F3000012300E0002318460C37BD4680BC7047E3
:101F400080B586B000AF78607B68002B01D101239B
:101F50006CE27B681B6803F00103002B00F08780B4
:101F6000924B5B6803F00C03042B0CD08F4B5B6827
:101F700003F00C03082B12D18C4B5B6803F4803305
:101F8000B3F5803F0BD1894B1B6803F40033002B62
:101F90006CD07B685B68002B68D1012346E27B68CC
:101FA0005B68B3F5803F06D1804B1B687F4A43F4E2
:101FB000803313602EE07B685B68002B0CD17B4B79
:101FC0001B687A4A23F480331360784B1B68774A86
:101FD00023F4802313601DE07B685B68B3F5A02FBA
:101FE0000CD1724B1B68714A43F4802313606F4B12
:101FF0001B686E4A43F4803313600BE06B4B1B6825
:102000006A4A23F480331360684B1B68674A23F4E1
:10201000802313607B685B68002B13D0FEF76CFD98
:10202000386108E0FEF768FD02463B69D31A642B6D
:1020300001D90323FAE15D4B1B6803F40033002B45
:10204000F0D014E0FEF758FD386108E0FEF754FDCB
:1020500002463B69D31A642B01D90323E6E1534BB3
:102060001B6803F40033002BF0D100E000BF7B6855
:102070001B6803F00203002B63D04C4B5B6803F03A
:102080000C03002B0BD0494B5B6803F00C03082BAF
:102090001CD1464B5B6803F48033002B16D1434BB5
:1020A0001B6803F00203002B05D07B681B69012B22
:1020B00001D00123BAE13D4B1B6823F0F8027B6895
:1020C0005B69DB00394913430B603AE07B681B69AD
:1020D000002B20D0364B01221A60FEF70DFD38612F
:1020E00008E0FEF709FD02463B69D31A022B01D92D
:1020F00003239BE12D4B1B6803F00203002BF0D060
:102100002A4B1B6823F0F8027B685B69DB002749D8
:1021100013430B6015E0264B00221A60FEF7ECFC1F
:10212000386108E0FEF7E8FC02463B69D31A022B4F
:1021300001D903237AE11D4B1B6803F00203002B36
:10214000F0D17B681B6803F00803002B3AD07B6852
:102150009B69002B19D0174B01221A60FEF7CCFCAB
:10216000386108E0FEF7C8FC02463B69D31A022B2F
:1021700001D903235AE10D4B5B6A03F00203002BE4
:10218000F0D0012000F0F6FA1CE00A4B00221A60A1
:10219000FEF7B2FC38610FE0FEF7AEFC02463B6989
:1021A000D31A022B08D9032340E100BF00100240DC
:1021B00000004242800442429E4B5B6A03F00203ED
:1021C000002BE9D17B681B6803F00403002B00F0AF
:1021D000A6800023FB75974BDB6903F08053002B2F
:1021E0000DD1944BDB69934A43F08053D361914BFB
:1021F000DB6903F08053BB60BB680123FB758E4B2A
:102200001B6803F48073002B18D18B4B1B688A4A20
:1022100043F480731360FEF76FFC386108E0FEF74B
:102220006BFC02463B69D31A642B01D90323FDE002
:10223000814B1B6803F48073002BF0D07B68DB6854
:10224000012B06D17B4B1B6A7A4A43F001031362D0
:102250002DE07B68DB68002B0CD1764B1B6A754A3E
:1022600023F001031362734B1B6A724A23F00403C9
:1022700013621CE07B68DB68052B0CD16D4B1B6A7D
:102280006C4A43F0040313626A4B1B6A694A43F0C9
:10229000010313620BE0674B1B6A664A23F00103DC
:1022A0001362644B1B6A634A23F0040313627B6866
:1022B000DB68002B15D0FEF71FFC38610AE0FEF743
:1022C0001BFC02463B69D31A41F28832934201D982
:1022D0000323ABE0574B1B6A03F00203002BEED045
:1022E00014E0FEF709FC38610AE0FEF705FC02463F
:1022F0003B69D31A41F28832934201D9032395E016
:102300004C4B1B6A03F00203002BEED1FB7D012B2B
:1023100005D1484BDB69474A23F08053D3617B6882
:10232000DB69002B00F08180424B5B6803F00C03FB
:10233000082B61D07B68DB69022B46D13F4B002222
:102340001A60FEF7D9FB386108E0FEF7D5FB0246BC
:102350003B69D31A022B01D9032367E0354B1B6875
:1023600003F00073002BF0D17B681B6AB3F5803F4C
:1023700008D1304B5B6823F400327B689B682D49A1
:1023800013434B602B4B5B6823F474127B68196A10
:102390007B685B6A0B43274913434B60274B012241
:1023A0001A60FEF7A9FB386108E0FEF7A5FB0246BC
:1023B0003B69D31A022B01D9032337E01D4B1B685D
:1023C00003F00073002BF0D02FE01C4B00221A60AA
:1023D000FEF792FB386108E0FEF78EFB02463B6990
:1023E000D31A022B01D9032320E0124B1B6803F000
:1023F0000073002BF0D118E07B68DB69012B01D161
:10240000012313E00B4B5B68FB60FB6803F4803235
:102410007B681B6A9A4206D1FB6803F470127B68E2
:102420005B6A9A4201D0012300E000231846183766
:10243000BD4680BD00100240007000406000424276
:1024400080B584B000AF786039607B68002B01D123
:102450000123D0E06A4B1B6803F007033A689A42F5
:1024600010D9674B1B6823F0070265493B6813438B
:102470000B60634B1B6803F007033A689A4201D074
:102480000123B8E07B681B6803F00203002B20D017
:102490007B681B6803F00403002B05D0594B5B6875
:1024A000584A43F4E06353607B681B6803F00803F9
:1024B000002B05D0534B5B68524A43F46053536082
:1024C000504B5B6823F0F0027B689B684D491343D7
:1024D0004B607B681B6803F00103002B40D07B68D6
:1024E0005B68012B07D1474B1B6803F40033002BBB
:1024F00015D101237FE07B685B68022B07D1414B3C
:102500001B6803F00073002B09D1012373E03D4BDE
:102510001B6803F00203002B01D101236BE0394B50
:102520005B6823F003027B685B68364913434B60AA
:10253000FEF7E2FAF8600AE0FEF7DEFA0246FB6810
:10254000D31A41F28832934201D9032353E02D4B31
:102550005B6803F00C027B685B689B009A42EBD1DE
:10256000274B1B6803F007033A689A4210D2244BAA
:102570001B6823F0070222493B6813430B60204B82
:102580001B6803F007033A689A4201D0012332E046
:102590007B681B6803F00403002B08D0194B5B68B1
:1025A00023F4E0627B68DB68164913434B607B6869
:1025B0001B6803F00803002B09D0124B5B6823F45F
:1025C00060527B681B69DB000E4913434B6000F0CF
:1025D00021F801460B4B5B681B0903F00F030A4A05
:1025E000D35C21FA03F3094A1360094B1B681846B0
:1025F000FEF786F9002318461037BD4680BD00BFA0
:102600000020024000100240D855000800000020C1
:102610000400002090B48AB000AF2A4B3C1D0FCBC1
:1026200084E80F00284B1B883B800023FB610023BC
:10263000BB6100237B6200237B6100233B62234B51
:102640005B68FB61FB6903F00C03042B02D0082BD1
:1026500003D02DE01E4B3B622DE0FB699B0C03F089
:102660000F0307F12802134413F8243C7B61FB6934
:1026700003F48033002B13D0144B5B685B0C03F026
:10268000010307F12802134413F8283CBB617B695E
:102690000F4A02FB03F2BB69B2FBF3F37B6204E077
:1026A0007B690C4A02FB03F37B627B6A3B6202E0BC
:1026B000074B3B6200BF3B6A18462837BD4690BCBB
:1026C000704700BF645500087455000800100240B0
:1026D00000127A0000093D0080B400AF024B1B6875
:1026E0001846BD4680BC70470000002080B500AF92
:1026F000FFF7F2FF0146054B5B681B0A03F0070377
:10270000034AD35C21FA03F3184680BD001002404F
:10271000E855000880B483B000AF786039607B680A
:102720000F221A60114B5B6803F003027B685A604A
:102730000E4B5B6803F0F0027B689A600B4B5B68A2
:1027400003F4E0627B68DA60084B5B68DB0803F443
:10275000E0627B681A61064B1B6803F007023B6866
:102760001A6000BF0C37BD4680BC704700100240A5
:102770000020024080B485B000AF78600A4B1B682F
:102780000A4AA2FB03235B0A7A6802FB03F3FB609D
:1027900000BFFB685A1EFA60002BF9D100BF143746
:1027A000BD4680BC704700BF00000020D34D6210C2
:1027B00080B582B000AF78607B68002B01D1012327
:1027C0001DE07B6893F83D30DBB2002B06D17B68BF
:1027D000002283F83C20786800F015F87B6802221C
:1027E00083F83D207B681A687B68043319461046DD
:1027F00000F062F97B68012283F83D20002318462F
:102800000837BD4680BD80B483B000AF786000BF9C
:102810000C37BD4680BC704780B485B000AF78608F
:102820007B681B68DA687B681B6842F00102DA602B
:102830007B681B689B6803F00703FB60FB68062B43
:1028400007D07B681B681A687B681B6842F001022E
:102850001A60002318461437BD4680BC704780B507
:1028600082B000AF78607B681B681B6903F00203CD
:10287000022B22D17B681B68DB6803F00203022B6A
:102880001BD17B681B686FF002021A617B68012212
:102890001A777B681B689B6903F00303002B03D046
:1028A000786800F0EDF805E0786800F0E0F8786806
:1028B00000F0EFF87B6800221A777B681B681B69C1
:1028C00003F00403042B22D17B681B68DB6803F050
:1028D0000403042B1BD17B681B686FF004021A6190
:1028E0007B6802221A777B681B689B6903F440733C
:1028F000002B03D0786800F0C3F805E0786800F09A
:10290000B6F8786800F0C5F87B6800221A777B6813
:102910001B681B6903F00803082B22D17B681B6826
:10292000DB6803F00803082B1BD17B681B686FF082
:1029300008021A617B6804221A777B681B68DB69CE
:1029400003F00303002B03D0786800F099F805E04A
:10295000786800F08CF8786800F09BF87B680022BB
:102960001A777B681B681B6903F01003102B22D1B8
:102970007B681B68DB6803F01003102B1BD17B689E
:102980001B686FF010021A617B6808221A777B6857
:102990001B68DB6903F44073002B03D0786800F0F8
:1029A0006FF805E0786800F062F8786800F071F878
:1029B0007B6800221A777B681B681B6903F00103A0
:1029C000012B0ED17B681B68DB6803F00103012B30
:1029D00007D17B681B686FF001021A617868FDF708
:1029E00001FF7B681B681B6903F08003802B0ED1FD
:1029F0007B681B68DB6803F08003802B07D17B6852
:102A00001B686FF080021A61786800F0C0F87B687C
:102A10001B681B6903F04003402B0ED17B681B68C9
:102A2000DB6803F04003402B07D17B681B686FF025
:102A300040021A61786800F035F87B681B681B69F2
:102A400003F02003202B0ED17B681B68DB6803F0AA
:102A50002003202B07D17B681B686FF020021A61CE
:102A6000786800F08BF800BF0837BD4680BD80B4A1
:102A700083B000AF786000BF0C37BD4680BC7047A4
:102A800080B483B000AF786000BF0C37BD4680BC17
:102A9000704780B483B000AF786000BF0C37BD468C
:102AA00080BC704780B483B000AF786000BF0C3743
:102AB000BD4680BC7047000080B485B000AF786030
:102AC00039607B681B68FB607B68294A93420BD0A6
:102AD0007B68B3F1804F07D07B68264A934203D0CE
:102AE0007B68254A934208D1FB6823F07003FB60A2
:102AF0003B685B68FA681343FB607B681C4A93423F
:102B00000BD07B68B3F1804F07D07B68194A9342A2
:102B100003D07B68184A934208D1FB6823F44073C2
:102B2000FB603B68DB68FA681343FB60FB6823F0DB
:102B300080023B685B691343FB607B68FA681A603C
:102B40003B689A687B68DA623B681A687B689A62BD
:102B50007B68074A934203D13B681A697B681A6312
:102B60007B6801225A6100BF1437BD4680BC7047A4
:102B7000002C0140000400400008004080B483B0F5
:102B800000AF786000BF0C37BD4680BC704780B492
:102B900083B000AF786000BF0C37BD4680BC704783
:102BA00080B485B000AFEFF30583BB60BB68002B3A
:102BB0000FD1EFF310837B607B68002B09D1104BA2
:102BC0001B68022B09D1EFF311833B603B68002B9C
:102BD00003D06FF00503FB600CE0094B1B68002B72
:102BE00005D1074B01221A600023FB6002E04FF081
:102BF000FF33FB60FB6818461437BD4680BC704746
:102C00003800002080B584B000AFEFF30583BB60CF
:102C1000BB68002B0FD1EFF310837B607B68002B28
:102C200009D1114B1B68022B09D1EFF311833B60D3
:102C30003B68002B03D06FF00503FB600EE00A4BEE
:102C40001B68012B07D1084B02221A6001F064F8BF
:102C50000023FB6002E04FF0FF33FB60FB68184687
:102C60001037BD4680BD00BF3800002080B592B04F
:102C700004AFF860B9607A6000237B61EFF30583ED
:102C80007B627B6A002B40F09480EFF310833B6201
:102C90003B6A002B40F08D80484B1B68022B06D10D
:102CA000EFF31183FB61FB69002B40F08280FB682E
:102CB000002B7ED080233B631823FB620023FB762E
:102CC00007F11B037B634FF0FF33BB627B68002B74
:102CD00045D07B681B68002B02D07B681B687B6338
:102CE0007B689B69002B02D07B689B69FB62FB6A57
:102CF000002B08D0FB6A382B05D87B685B6803F093
:102D00000103002B01D0002354E07B685B69002B9A
:102D100003D07B685B699B083B637B689B68002BE7
:102D20000ED07B68DB685B2B0AD97B681B69002BA4
:102D300006D07B685B69002B02D00123BB6210E0E8
:102D40007B689B68002B0CD17B68DB68002B08D16B
:102D50007B681B69002B04D10023BB6201E00023C8
:102D6000BB62BB6A012B10D17B681B697A689268D1
:102D700002920193FB6A0093BB683A6B796BF86827
:102D800000F002FE03467B6113E0BB6A002B10D10A
:102D90003B6B9AB207F114030193FB6A0093BB6883
:102DA000796BF86800F049FE0346012B01D000233F
:102DB0007B617B6918463837BD4680BD38000020EE
:102DC00080B586B000AF7860EFF305833B613B6967
:102DD000002B0FD1EFF31083FB60FB68002B09D1B0
:102DE0000D4B1B68022B09D1EFF31183BB60BB684D
:102DF000002B03D06FF005037B6107E000237B61AC
:102E00007B68002B02D0786800F052FF7B6918467F
:102E10001837BD4680BD00BF3800002080B485B0A3
:102E200000AFF860B9607A60FB68064A1A60BB6858
:102E3000054A1A607B6880221A6000BF1437BD46BD
:102E400080BC70473C0000209800002080B485B012
:102E500000AFF860B9607A60FB68074A1A60BB6827
:102E6000064A1A607B684FF480721A6000BF1437FC
:102E7000BD4680BC704700BF98020020F4020020CD
:102E800080B483B000AF78607B6803F108027B6890
:102E90005A607B684FF0FF329A607B6803F108024A
:102EA0007B68DA607B6803F108027B681A617B68E3
:102EB00000221A6000BF0C37BD4680BC704780B44A
:102EC00083B000AF78607B6800221A6100BF0C37C6
:102ED000BD4680BC704780B485B000AF7860396073
:102EE0007B685B68FB603B68FA685A60FB689A68BD
:102EF0003B689A60FB689B683A685A60FB683A686E
:102F00009A603B687A681A617B681B685A1C7B6808
:102F10001A6000BF1437BD4680BC704780B485B0CE
:102F200000AF786039603B681B68BB60BB68B3F179
:102F3000FF3F03D17B681B69FB600CE07B680833B3
:102F4000FB6002E0FB685B68FB60FB685B681B681A
:102F5000BA689A42F6D2FB685A683B685A603B6886
:102F60005B683A689A603B68FA689A60FB683A68FE
:102F70005A603B687A681A617B681B685A1C7B68D8
:102F80001A6000BF1437BD4680BC704780B485B05E
:102F900000AF78607B681B69FB607B685B687A6860
:102FA00092689A607B689B687A6852685A60FB688E
:102FB0005B687A689A4203D17B689A68FB685A60BA
:102FC0007B6800221A61FB681B685A1EFB681A6046
:102FD000FB681B6818461437BD4680BC704700006C
:102FE00080B584B000AF786039607B68FB60FB68B7
:102FF000002B09D14FF0500383F31188BFF36F8F7B
:10300000BFF34F8FBB60FEE701F096FFFB681A68C5
:10301000FB68DB6BF968096C01FB03F31A44FB687E
:103020005A60FB6800229A63FB681A68FB689A6022
:10303000FB681A68FB68DB6B013BF968096C01FBF4
:1030400003F31A44FB68DA60FB68FF2283F844202C
:10305000FB68FF2283F845203B68002B14D1FB68F6
:103060001B69002B1AD0FB681033184601F0D8F802
:103070000346002B12D00D4B4FF080521A60BFF365
:103080004F8FBFF36F8F09E0FB6810331846FFF7CF
:10309000F7FEFB6824331846FFF7F2FE01F07AFFD3
:1030A000012318461037BD4680BD00BF04ED00E087
:1030B00080B58EB002AFF860B9607A603B60FB68A3
:1030C000002B09D14FF0500383F31188BFF36F8FAA
:1030D000BFF34F8FBB62FEE73B68002B09D14FF077
:1030E000500383F31188BFF36F8FBFF34F8F7B6261
:1030F000FEE77B68002B02D0BB68002B01D00123C8
:1031000000E00023002B09D14FF0500383F3118816
:10311000BFF36F8FBFF34F8F3B62FEE77B68002BDF
:1031200002D1BB68002B01D1012300E00023002B5A
:1031300009D14FF0500383F31188BFF36F8FBFF3B2
:103140004F8FFB61FEE750237B617B69502B09D0D9
:103150004FF0500383F31188BFF36F8FBFF34F8F8E
:10316000BB61FEE73B68FB62FB6A002B0DD0FB6A8C
:10317000012283F8462097F83820FB6A0093134613
:103180007A68B968F86800F005F8FB6A18463037C5
:10319000BD4680BD80B584B000AFF860B9607A608C
:1031A000FB70BB68002B03D1BB69BA691A6002E0EF
:1031B000BB697A681A60BB69FA68DA63BB69BA6886
:1031C0001A640121B869FFF70BFFBB69FA7883F82D
:1031D0004C2000BF1037BD4680BD000080B58EB0CA
:1031E00000AFF860B9607A603B6000237B63FB68E6
:1031F0003B633B6B002B09D14FF0500383F31188E5
:10320000BFF36F8FBFF34F8FBB62FEE7BB68002B2E
:1032100003D13B6B1B6C002B01D1012300E0002389
:10322000002B09D14FF0500383F31188BFF36F8F48
:10323000BFF34F8F7B62FEE73B68022B03D13B6BF2
:10324000DB6B012B01D1012300E00023002B09D10E
:103250004FF0500383F31188BFF36F8FBFF34F8F8D
:103260003B62FEE701F096F90346002B02D17B6832
:10327000002B01D1012300E00023002B09D14FF0E6
:10328000500383F31188BFF36F8FBFF34F8FFB6140
:10329000FEE701F051FE3B6B9A6B3B6BDB6B9A4296
:1032A00002D33B68022B29D13A68B968386B00F029
:1032B000FFF9F8623B6B5B6A002B10D03B6B243349
:1032C000184600F0ADFF0346002B13D03F4B4FF0E4
:1032D00080521A60BFF34F8FBFF36F8F0AE0FB6A13
:1032E000002B07D0394B4FF080521A60BFF34F8F3D
:1032F000BFF36F8F01F04EFE012363E07B68002B6C
:1033000003D101F047FE00235CE07B6B002B06D16C
:1033100007F11403184600F0E5FF01237B6301F079
:1033200039FE00F05DFD01F007FE3B6B93F8443081
:103330005BB2B3F1FF3F03D13B6B002283F8442023
:103340003B6B93F845305BB2B3F1FF3F03D13B6B6E
:10335000002283F8452001F01DFE3A1D07F11403F9
:103360001146184600F0D4FF0346002B24D1386BD9
:1033700000F096FA0346002B18D03B6B10337A68A6
:103380001146184600F0FEFE386B00F021FA00F0FE
:1033900035FD0346002B7FF47CAF0C4B4FF0805281
:1033A0001A60BFF34F8FBFF36F8F72E7386B00F077
:1033B0000FFA00F023FD6CE7386B00F009FA00F01B
:1033C0001DFD002318463837BD4680BD04ED00E0E2
:1033D00080B58EB000AFF860B9607A603B60FB6882
:1033E0003B633B6B002B09D14FF0500383F31188F3
:1033F000BFF36F8FBFF34F8F7B62FEE7BB68002B7D
:1034000003D13B6B1B6C002B01D1012300E0002397
:10341000002B09D14FF0500383F31188BFF36F8F56
:10342000BFF34F8F3B62FEE73B68022B03D13B6B40
:10343000DB6B012B01D1012300E00023002B09D11C
:103440004FF0500383F31188BFF36F8FBFF34F8F9B
:10345000FB61FEE701F02AFEEFF311824FF050030B
:1034600083F31188BFF36F8FBFF34F8FBA617B6116
:10347000BB69FB623B6B9A6B3B6BDB6B9A4202D383
:103480003B68022B2CD13B6B93F8453087F82B30EF
:103490003A68B968386B00F00BF997F92B30B3F143
:1034A000FF3F12D13B6B5B6A002B16D03B6B243382
:1034B000184600F0B5FE0346002B0ED07B68002BAB
:1034C0000BD07B6801221A6007E097F82B3001339C
:1034D000DBB25AB23B6B83F8452001237B6301E0EA
:1034E00000237B63FB6A3B613B6983F311887B6B41
:1034F00018463837BD4680BD80B58CB000AFF86047
:10350000B9607A600023FB62FB68BB62BB6A002B78
:1035100009D14FF0500383F31188BFF36F8FBFF3CE
:103520004F8F3B62FEE7BB68002B03D1BB6A1B6C6D
:10353000002B01D1012300E00023002B09D14FF023
:10354000500383F31188BFF36F8FBFF34F8FFB617D
:10355000FEE701F01FF80346002B02D17B68002B29
:1035600001D1012300E00023002B09D14FF05003CB
:1035700083F31188BFF36F8FBFF34F8FBB61FEE7FB
:1035800001F0DAFCBB6A9B6B7B627B6A002B1FD06D
:10359000B968B86A00F0F6F87B6A5A1EBB6A9A638B
:1035A000BB6A1B69002B0FD0BB6A1033184600F0B2
:1035B00037FE0346002B07D03C4B4FF080521A6079
:1035C000BFF34F8FBFF36F8F01F0E4FC012369E07D
:1035D0007B68002B03D101F0DDFC002362E0FB6A75
:1035E000002B06D107F11003184600F07BFE0123E3
:1035F000FB6201F0CFFC00F0F3FB01F09DFCBB6A25
:1036000093F844305BB2B3F1FF3F03D1BB6A0022B1
:1036100083F84420BB6A93F845305BB2B3F1FF3FB7
:1036200003D1BB6A002283F8452001F0B3FC3A1DA8
:1036300007F110031146184600F06AFE0346002BFE
:1036400023D1B86A00F016F90346002B17D0BB6AE5
:1036500024337A681146184600F094FDB86A00F0E9
:10366000B7F800F0CBFB0346002B89D10F4B4FF08E
:1036700080521A60BFF34F8FBFF36F8F80E7B86A35
:1036800000F0A6F800F0BAFB7AE7B86A00F0A0F8FC
:1036900000F0B4FBB86A00F0EDF80346002B3FF4ED
:1036A0006FAF002318463037BD4680BD04ED00E003
:1036B00080B586B000AFF860B9607A6000237B61A6
:1036C000FB689B6B3B61FB681B6C002B0DD1FB689F
:1036D0001B68002B4DD1FB685B68184600F078FF33
:1036E0007861FB6800225A6043E07B68002B19D1A7
:1036F000FB689868FB681B6C1A46B96801F00AFF02
:10370000FB689A68FB681B6C1A44FB689A60FB684C
:103710009A68FB685B689A422BD3FB681A68FB685F
:103720009A6026E0FB68D868FB681B6C1A46B9688B
:1037300001F0F0FEFB68DA68FB681B6C5B421A4420
:10374000FB68DA60FB68DA68FB681B689A4207D29C
:10375000FB685A68FB681B6C5B421A44FB68DA60C2
:103760007B68022B05D13B69002B02D03B69013BF2
:103770003B613B695A1CFB689A637B6918461837A2
:10378000BD4680BD80B582B000AF786039607B688F
:103790001B6C002B18D07B68DA687B681B6C1A44A2
:1037A0007B68DA607B68DA687B685B689A4203D37F
:1037B0007B681A687B68DA607B68D9687B681B6CF9
:1037C0001A46386801F0A6FE00BF0837BD4680BD26
:1037D00080B584B000AF786001F0AEFB7B6893F8F1
:1037E0004530FB7311E07B685B6A002B12D07B686D
:1037F0002433184600F014FD0346002B01D000F0DE
:10380000E7FDFB7B013BDBB2FB7397F90F30002B2D
:10381000E9DC00E000BF7B68FF2283F8452001F06F
:10382000B9FB01F089FB7B6893F84430BB7311E06E
:103830007B681B69002B12D07B681033184600F0A0
:10384000EFFC0346002B01D000F0C2FDBB7B013B27
:10385000DBB2BB7397F90E30002BE9DC00E000BF50
:103860007B68FF2283F8442001F094FB00BF1037EF
:10387000BD4680BD80B584B000AF786001F05CFBD0
:103880007B689B6B002B02D10123FB6001E00023CE
:10389000FB6001F07FFBFB6818461037BD4680BD1A
:1038A00080B584B000AF786001F046FB7B689A6B0E
:1038B0007B68DB6B9A4202D10123FB6001E00023AD
:1038C000FB6001F067FBFB6818461037BD4680BD02
:1038D00080B485B000AF786039600023FB6014E0ED
:1038E0000E4AFB6852F83330002B0BD10B49FB68B2
:1038F0003A6841F83320094AFB68DB0013447A68D0
:103900005A6005E0FB680133FB60FB68072BE7D9D1
:1039100000BF1437BD4680BC704700BFF8190020B7
:1039200080B586B000AFF860B9607A60FB687B61F3
:1039300001F002FB7B6993F844305BB2B3F1FF3FC7
:1039400003D17B69002283F844207B6993F84530DA
:103950005BB2B3F1FF3F03D17B69002283F84520BE
:1039600001F018FB7B699B6B002B06D17B6924332C
:103970007A68B968184600F029FC7869FFF728FFD3
:1039800000BF1837BD4680BD80B58EB004AFF8606B
:10399000B9607A603B607B6B002B09D14FF050031C
:1039A00083F31188BFF36F8FBFF34F8F3B62FEE746
:1039B000BB6B002B09D14FF0500383F31188BFF389
:1039C0006F8FBFF34F8FFB61FEE75C233B613B6969
:1039D0005C2B09D04FF0500383F31188BFF36F8F36
:1039E000BFF34F8FBB61FEE7BB6B002B1ED07B6B21
:1039F000002B1BD0BB6B7B627B6A7A6B1A637B6A82
:103A0000022283F85920002303937B6A029307F173
:103A1000140301933B6B00933B687A68B968F868BC
:103A200000F050F8786A00F0D3F801E000237B61E1
:103A30007B6918462837BD4680BD80B58CB004AF81
:103A4000F860B9603B601346FB80FB889B0018461A
:103A500001F068FB78617B69002B0ED05C2001F0DF
:103A600061FBF861FB69002B03D0FB697A691A637B
:103A700005E0786901F018FC01E00023FB61FB69B7
:103A8000002B17D0FB69002283F85920FA88002305
:103A90000393FB690293FB6A0193BB6A00933B6843
:103AA000B968F86800F00EF8F86900F091F80123A1
:103AB000BB6102E04FF0FF33BB61BB6918462037A2
:103AC000BD4680BD80B588B000AFF860B9607A604F
:103AD0003B603B6B186B7B689B001A46A52101F08D
:103AE00024FD3B6B1A6B7B6803F18043013B9B0019
:103AF0001344BB61BB6923F00703BB61BB6903F0DF
:103B00000703002B09D04FF0500383F31188BFF354
:103B10006F8FBFF34F8F7B61FEE70023FB6112E0E5
:103B2000BA68FB69134419783A6BFB691344343360
:103B30000A461A70BA68FB6913441B78002B06D03A
:103B4000FB690133FB61FB690F2BE9D900E000BF82
:103B50003B6B002283F84320BB6A372B01D9372304
:103B6000BB623B6BBA6ADA623B6BBA6ADA643B6B84
:103B700000221A653B6B04331846FFF7A0F93B6B34
:103B800018331846FFF79BF93B6B3A6B1A61BB6A17
:103B9000C3F138023B6B9A613B6B3A6B5A623B6BE9
:103BA00000225A653B6B002283F858203A68F96876
:103BB000B86901F0D7F802463B6B1A60FB6A002B2C
:103BC00002D0FB6A3A6B1A6000BF2037BD4680BD49
:103BD00080B582B000AF786001F0AEF92D4B1B6864
:103BE00001332C4A13602C4B1B68002B09D12A4A45
:103BF0007B681360274B1B68012B10D100F00CFC75
:103C00000DE0264B1B68002B09D1234B1B68DA6A99
:103C10007B68DB6A9A4202D81F4A7B681360204B9C
:103C20001B6801331E4A13601D4B1A687B685A6477
:103C30007B68DA6A1B4B1B689A4203D97B68DB6A94
:103C4000184A13607B68DA6A13469B0013449B0092
:103C5000154A1A447B68043319461046FFF73BF9AE
:103C600001F098F90D4B1B68002B0ED00A4B1B6816
:103C7000DA6A7B68DB6A9A4207D20C4B4FF08052BB
:103C80001A60BFF34F8FBFF36F8F00BF0837BD4679
:103C900080BD00BFC80B0020F4060020D40B00201C
:103CA000E40B0020D00B0020F806002004ED00E01B
:103CB00080B584B000AF78600023FB607B68002B88
:103CC00016D0134B1B68002B09D04FF0500383F321
:103CD0001188BFF36F8FBFF34F8FBB60FEE700F01B
:103CE0007FF80021786800F0DFFC00F087F8F860CA
:103CF000FB68002B07D1074B4FF080521A60BFF3CF
:103D00004F8FBFF36F8F00BF1037BD4680BD00BF20
:103D1000F00B002004ED00E080B58AB004AF002372
:103D2000BB6000237B603A46391D07F10803184643
:103D3000FFF774F839687B68BA6802920193002330
:103D4000009300230A4620492048FFF71DFE024643
:103D50001F4B1A601E4B1B68002B02D001237B6196
:103D600001E000237B617B69012B02D100F0F0FCB4
:103D700078617B69012B15D14FF0500383F31188D3
:103D8000BFF36F8FBFF34F8F3B61124B4FF0FF328A
:103D90001A60114B01221A60104B00221A6001F0C8
:103DA0005BF80DE07B69B3F1FF3F09D14FF05003A1
:103DB00083F31188BFF36F8FBFF34F8FFB60FEE774
:103DC00000BF1837BD4680BD78550008E94300089C
:103DD000EC0B0020E80B0020D40B0020CC0B0020C3
:103DE00080B400AF044B1B680133034A136000BF6B
:103DF000BD4680BC704700BFF00B002080B584B08A
:103E000000AF0023FB600023BB60414B1B68002B0D
:103E100009D14FF0500383F31188BFF36F8FBFF3C5
:103E20004F8F3B60FEE701F087F8394B1B68013B81
:103E3000374A1360364B1B68002B62D1354B1B6829
:103E4000002B5ED02FE0344BDB68DB68FB60FB6847
:103E500018331846FFF79AF8FB6804331846FFF743
:103E600095F8FB68DA6A2D4B1B689A4203D9FB6808
:103E7000DB6A2A4A1360FB68DA6A13469B00134424
:103E80009B00274A1A44FB68043319461046FFF783
:103E900022F8FB68DA6A234B1B68DB6A9A4202D37A
:103EA000214B01221A601C4B1B68002BCBD1FB68F5
:103EB000002B01D000F04AFB1C4B1B687B607B6829
:103EC000002B10D000F044F80346002B02D0164B14
:103ED00001221A607B68013B7B607B68002BF1D17B
:103EE000124B00221A60104B1B68002B09D00123D3
:103EF000BB600F4B4FF080521A60BFF34F8FBFF380
:103F00006F8F01F047F8BB6818461037BD4680BD7B
:103F1000F00B0020C80B0020880B0020D00B0020E5
:103F2000F8060020F4060020DC0B0020D80B00204F
:103F300004ED00E080B483B000AF044B1B687B60ED
:103F40007B6818460C37BD4680BC7047CC0B002000
:103F500080B586B000AF00237B61514B1B68002BFE
:103F600040F08D804F4B1B6801333B614D4A3B69EC
:103F700013603B69002B1FD14B4B1B681B68002B48
:103F800009D04FF0500383F31188BFF36F8FBFF355
:103F90004F8F3B60FEE7444B1B68FB60434B1B6845
:103FA000414A1360414AFB681360414B1B6801336F
:103FB0003F4A136000F0CAFA3E4B1B683A699A42C6
:103FC0004ED3394B1B681B68002B01D1012300E045
:103FD0000023002B04D0374B4FF0FF321A603FE034
:103FE000314B1B68DB68DB68BB60BB685B687B6070
:103FF0003A697B689A4203D22E4A7B6813602FE0AD
:10400000BB6804331846FEF7C1FFBB689B6A002BF0
:1040100004D0BB6818331846FEF7B8FFBB68DA6AED
:10402000254B1B689A4203D9BB68DB6A224A13609E
:10403000BB68DA6A13469B0013449B001F4A1A446C
:10404000BB68043319461046FEF745FFBB68DA6AC1
:104050001B4B1B68DB6A9A42B3D301237B61B0E739
:10406000174B1B68DA6A154913469B0013449B00E3
:104070000B441B68012B07D901237B6104E0114B22
:104080001B6801330F4A13600F4B1B68002B01D0D4
:1040900001237B617B6918461837BD4680BD00BF90
:1040A000F00B0020CC0B0020800B0020840B0020A4
:1040B000E00B0020E80B0020D00B0020F8060020C9
:1040C000F4060020D80B0020DC0B002080B485B063
:1040D00000AF274B1B68002B03D0264B01221A6030
:1040E00040E0244B00221A60234B1B68FB600FE06A
:1040F000FB68002B09D14FF0500383F31188BFF305
:104100006F8FBFF34F8F7B60FEE7FB68013BFB6067
:104110001A49FA6813469B0013449B000B441B6822
:10412000002BE5D0FA6813469B0013449B00134A0A
:104130001344BB60BB685B685A68BB685A60BB6865
:104140005A68BB6808339A4204D1BB685B685A68F6
:10415000BB685A60BB685B68DB68094A1360064A43
:10416000FB68136000BF1437BD4680BC704700BFBA
:10417000F00B0020DC0B0020D00B0020F806002004
:10418000F406002080B584B000AF786039607B68A9
:10419000002B09D14FF0500383F31188BFF36F8FC9
:1041A000BFF34F8FFB60FEE7074B1B6818331946C0
:1041B0007868FEF7B3FE0121386800F075FA00BF99
:1041C0001037BD4680BD00BFF406002080B586B024
:1041D00000AFF860B9607A60FB68002B09D14FF03E
:1041E000500383F31188BFF36F8FBFF34F8F7B6151
:1041F000FEE70A4B1B6818331946F868FEF76BFE9A
:104200007B68002B02D04FF0FF33BB607968B86841
:1042100000F04AFA00BF1837BD4680BDF406002002
:1042200080B586B000AF78607B68DB68DB683B6197
:104230003B69002B09D14FF0500383F31188BFF382
:104240006F8FBFF34F8FFB60FEE73B691833184653
:10425000FEF79CFE1D4B1B68002B1DD13B690433F0
:104260001846FEF793FE3B69DA6A194B1B689A42BF
:1042700003D93B69DB6A164A13603B69DA6A134665
:104280009B0013449B00134A1A443B6904331946AC
:104290001046FEF720FE05E03B69183319460E482C
:1042A000FEF719FE3B69DA6A0C4B1B68DB6A9A421F
:1042B00005D901237B610A4B01221A6001E000232A
:1042C0007B617B6918461837BD4680BDF00B002026
:1042D000D00B0020F8060020880B0020F4060020F8
:1042E000DC0B002080B483B000AF7860064B1A6806
:1042F0007B681A60054B1A687B685A6000BF0C37F0
:10430000BD4680BC704700BFE00B0020CC0B0020F6
:1043100080B588B000AF786039607B68002B09D128
:104320004FF0500383F31188BFF36F8FBFF34F8FAC
:104330003B61FEE73B68002B09D14FF0500383F34C
:104340001188BFF36F8FBFF34F8FFB60FEE700F064
:10435000F3FD1D4B1B68BB617B685B68BA69D31AB0
:104360007B613B681B68B3F1FF3F02D10023FB6117
:1043700023E07B681A68154B1B689A4207D07B685C
:104380005B68BA699A4202D30123FB6115E03B687E
:104390001B687A699A420BD23B681A687B69D21A09
:1043A0003B681A607868FFF79DFF0023FB6104E01B
:1043B0003B6800221A600123FB6100F0EBFDFB6902
:1043C00018462037BD4680BDCC0B0020E00B0020F6
:1043D00080B400AF034B01221A6000BFBD4680BC11
:1043E000704700BFDC0B002080B582B000AF786062
:1043F00000F052F8064B1B68012BF9D9054B4FF022
:1044000080521A60BFF34F8FBFF36F8FF0E700BF8A
:10441000F806002004ED00E080B582B000AF002374
:104420007B600CE07A6813469B0013449B00124AA1
:1044300013441846FEF724FD7B6801337B607B68DC
:10444000372BEFD90D48FEF71BFD0D48FEF718FD81
:104450000C48FEF715FD0C48FEF712FD0B48FEF761
:104460000FFD0B4B054A1A600A4B054A1A6000BF44
:104470000837BD4680BD00BFF8060020580B00205D
:104480006C0B0020880B00209C0B0020B40B00203C
:10449000800B0020840B002080B582B000AF19E0B3
:1044A00000F04AFD0F4BDB68DB687B607B68043300
:1044B0001846FEF76BFD0C4B1B68013B0A4A136064
:1044C0000A4B1B68013B094A136000F063FD7868E2
:1044D00000F00EF8054B1B68002BE1D100BF083738
:1044E000BD4680BD9C0B0020C80B0020B00B0020F7
:1044F00080B584B000AF78607B6893F85930002BAA
:1045000008D17B681B6B184600F0CEFE786800F07F
:10451000CBFE17E07B6893F85930012B03D1786804
:1045200000F0C2FE0EE07B6893F85930022B09D0F0
:104530004FF0500383F31188BFF36F8FBFF34F8F9A
:10454000FB60FEE700BF1037BD4680BD80B483B07E
:1045500000AF0E4B1B681B68002B01D1012300E04C
:104560000023002B04D00A4B4FF0FF321A6008E002
:10457000064B1B68DB68DB687B607B685B68044A12
:10458000136000BF0C37BD4680BC7047800B002015
:10459000E80B002080B483B000AF0B4B1B68002BEE
:1045A00002D101237B6008E0084B1B68002B02D17D
:1045B00002237B6001E000237B607B6818460C3798
:1045C000BD4680BC704700BFD40B0020F00B00201C
:1045D00080B586B000AF78607B683B6100237B616B
:1045E0007B68002B54D02D4B1B683A699A4209D046
:1045F0004FF0500383F31188BFF36F8FBFF34F8FDA
:10460000FB60FEE73B691B6D002B09D14FF05003A7
:1046100083F31188BFF36F8FBFF34F8FBB60FEE74B
:104620003B691B6D5A1E3B691A653B69DA6A3B6937
:10463000DB6C9A422CD03B691B6D002B28D13B6967
:1046400004331846FEF7A2FC3B69DA6C3B69DA6278
:104650003B69DB6AC3F138023B699A613B69DA6AFC
:104660000F4B1B689A4203D93B69DB6A0C4A136003
:104670003B69DA6A13469B0013449B00094A1A44BB
:104680003B69043319461046FEF725FC01237B6184
:104690007B6918461837BD4680BD00BFF406002070
:1046A000D00B0020F806002080B584B000AF786001
:1046B0003960214B1B68FB60204B1B680433184694
:1046C000FEF764FC7B68B3F1FF3F0AD13B68002B27
:1046D00007D01A4B1B68043319461948FEF7FBFB39
:1046E00026E0FA687B681344BB60144B1B68BA6809
:1046F0005A60BA68FB689A4209D2124B1A680F4B8B
:104700001B68043319461046FEF708FC10E00E4BF8
:104710001A680A4B1B68043319461046FEF7FEFB65
:104720000A4B1B68BA689A4202D2084ABB681360F7
:1047300000BF1037BD4680BDCC0B0020F406002022
:10474000B40B0020840B0020800B0020E80B00201D
:1047500080B58AB004AF00237B6100F0C3FA1C4B24
:104760001B68002B21D00023FB600023BB603A1D97
:1047700007F1080107F10C031846FEF767FB79689B
:10478000BB68FA68029201930223009300230A4651
:1047900010491148FFF7F8F80246104B1A600F4B0A
:1047A0001B68002B01D001237B617B69002B09D1A1
:1047B0004FF0500383F31188BFF36F8FBFF34F8F18
:1047C0003B61FEE77B6918461837BD4680BD00BFD8
:1047D000240C002080550008F9480008280C00200F
:1047E00080B58AB000AFF860B9607A603B600023A2
:1047F0007B62FB68002B09D14FF0500383F31188D3
:10480000BFF36F8FBFF34F8F3B62FEE7194B1B68FF
:10481000002B2AD0BB683B617B687B61FB68BB6176
:10482000BB68052B18DCFFF7B5FE0346022B09D148
:10483000104B186807F1100100233A6BFEF7CEFC0D
:10484000786212E00B4B186807F110010023002278
:10485000FEF7C4FC786208E0064B186807F1100107
:1048600000233A68FEF7B4FD78627B6A1846283761
:10487000BD4680BD240C002080B588B002AF7860B2
:1048800039601C4B1B68DB68DB687B617B69043328
:104890001846FEF77BFB7B69DB69012B21D17B6925
:1048A0009A697B68D1187B683A68786900F0C8F823
:1048B0000346002B15D00023009300237A680021C3
:1048C0007869FFF78DFF38613B69002B09D14FF004
:1048D000500383F31188BFF36F8FBFF34F8FFB60DB
:1048E000FEE77B695B6A7869984700BF1837BD4669
:1048F00080BD00BF1C0C002080B584B000AF786084
:1049000007F10803184600F057F8F860BB6819462D
:10491000F86800F003F800F0D5F8F1E780B584B04E
:1049200000AF78603960FFF75BFA07F108031846BB
:1049300000F066F8F860BB68002B30D13B68002BB4
:104940000AD17A68FB689A4206D8FFF757FAF968E5
:104950007868FFF791FF24E03B68002B08D0134BE9
:104960001B681B68002B0CBF01230023DBB23B60DC
:104970000F4B18687A68FB68D31A3A681946FEF735
:10498000CFFFFFF73BFA0346002B0AD1094B4FF04C
:1049900080521A60BFF34F8FBFF36F8F01E0FFF7B4
:1049A0002DFA00BF1037BD4680BD00BF200C00208F
:1049B000240C002004ED00E080B485B000AF7860E6
:1049C0000E4B1B681B68002B0CBF01230023DBB2BE
:1049D0001A467B681A607B681B68002B05D1074B61
:1049E0001B68DB681B68FB6001E00023FB60FB6861
:1049F00018461437BD4680BC704700BF1C0C002011
:104A000080B584B000AF7860FFF794FAF8600B4B84
:104A10001B68FA689A4205D200F004F97B6801220B
:104A20001A6002E07B6800221A60044AFB68136087
:104A3000FB6818461037BD4680BD00BF2C0C002017
:104A400080B586B000AFF860B9607A603B60002343
:104A50007B61FB68BA685A60FB68FA681A61BA68D9
:104A60007B689A4212D87A683B68D21AFB689B69C5
:104A70009A4202D301237B611BE0104B1A68FB684A
:104A8000043319461046FEF749FA12E07A683B688B
:104A90009A4206D2BA683B689A4202D301237B61EC
:104AA00007E0074B1A68FB68043319461046FEF707
:104AB00035FA7B6918461837BD4680BD200C0020AA
:104AC0001C0C002080B58EB002AF99E07B68002BF3
:104AD00017DA3B1D0433FB62FB6A002B09D14FF050
:104AE000500383F31188BFF36F8FBFF34F8FFB61C8
:104AF000FEE7FB6A1B68FA6A5068FA6A9268114618
:104B000098477B68002B7ADBFB68BB62BB6A5B69FA
:104B1000002B04D0BB6A04331846FEF737FA3B4635
:104B20001846FFF76DFF78627B68092B68D801A2F1
:104B300052F823F05D4B00085D4B00085D4B000808
:104B4000014C0008B74B0008ED4B00085D4B000816
:104B50005D4B0008014C0008B74B0008BA68BB6AFF
:104B60009B69D118BB687A6AB86AFFF769FF034688
:104B7000002B45D0BB6A5B6AB86A9847BB6ADB69A1
:104B8000012B3DD1BA68BB6A9B691A44002300938C
:104B900000230021B86AFFF723FE38623B6A002B2E
:104BA0002ED14FF0500383F31188BFF36F8FBFF303
:104BB0004F8FBB61FEE7BA68BB6A9A61BB6A9B69AB
:104BC000002B09D14FF0500383F31188BFF36F8F8F
:104BD000BFF34F8F7B61FEE7BB6A9A697B6AD1188E
:104BE0007B6A7A6AB86AFFF72BFF09E0BB6A93F821
:104BF0002C30002B04D1B86A00F056FB00E000BF57
:104C0000074B1B68391D00221846FEF775FC03464A
:104C1000002B7FF45BAF00BF3037BD4680BD00BFC7
:104C2000240C002080B588B002AF44E02B4B1B68F9
:104C3000DB681B683B61294B1B68DB68DB68FB603A
:104C4000FB6804331846FEF7A1F9FB685B6AF86855
:104C50009847FB68DB69012B2DD1FB689B693A699A
:104C60001344BB60BA683B699A420ED9FB68BA68C4
:104C70005A60FB68FA681A61184B1A68FB680433BB
:104C800019461046FEF74AF915E000230093002369
:104C90003A690021F868FFF7A3FD78607B68002B74
:104CA00009D14FF0500383F31188BFF36F8FBFF327
:104CB0004F8F3B60FEE7094B1B681B68002BB5D18B
:104CC000064B1B687B61064B1B68044A1360044A51
:104CD0007B69136000BF1837BD4680BD1C0C0020E7
:104CE000200C002080B582B002AF00F025F9154BF2
:104CF0001B68002B20D11448FEF7C2F81348FEF7BA
:104D0000BFF8134B104A1A60124B104A1A60002366
:104D10000093114B114A10210A20FEF7C9F90246EF
:104D2000084B1A60074B1B68002B05D0054B1B680E
:104D30000B491846FEF7CCFD00F02CF900BFBD462C
:104D400080BD00BF240C0020F40B0020080C0020C4
:104D50001C0C0020200C0020D00C0020300C002067
:104D60008855000880B485B000AFF860B9607A60FB
:104D7000FB68043BFB60FB684FF080721A60FB68C5
:104D8000043BFB60BB6823F00102FB681A60FB6810
:104D9000043BFB60084AFB681A60FB68143BFB603D
:104DA0007A68FB681A60FB68203BFB60FB6818466A
:104DB0001437BD4680BC7047BD4D000880B485B037
:104DC00000AF00237B60104B1B68B3F1FF3F09D09D
:104DD0004FF0500383F31188BFF36F8FBFF34F8FF2
:104DE000FB60FEE74FF0500383F31188BFF36F8F32
:104DF000BFF34F8FBB6000BF7B68002BFCD000BFB0
:104E00001437BD4680BC70470C0000200000000035
:104E1000074B19680868B0E8F00F80F30988BFF302
:104E20006F8F4FF0000080F311884EF00D0E704729
:104E3000F406002000BF00BF06480068006880F349
:104E4000088862B661B6BFF34F8FBFF36F8F00DF84
:104E500000BF00BF08ED00E080B584B000AF314B6B
:104E6000FB60FB681B78DBB27B60FB68FF221A707B
:104E7000FB681B78DBB2FB70FB78DBB203F05003FE
:104E8000DAB2294B1A70294B07221A6009E0274B26
:104E90001B68013B254A1360FB78DBB25B00DBB289
:104EA000FB70FB78DBB203F08003802BEFD01F4B4D
:104EB0001B68C3F10703042B09D04FF0500383F3A1
:104EC0001188BFF36F8FBFF34F8FBB60FEE7174BA7
:104ED0001B681B02154A1360144B1B6803F4E06344
:104EE000124A13607B68DAB2FB681A70104B1B68B9
:104EF0000F4A43F4700313600D4B1B680C4A43F0D8
:104F00007043136000F0B0F80A4B00221A60FFF7FC
:104F100093FFFFF7DBF8FFF751FF00231846103728
:104F2000BD4680BD00E400E0200D0020240D0020DF
:104F300020ED00E00C00002080B483B000AF4FF003
:104F4000500383F31188BFF36F8FBFF34F8F7B60E4
:104F50000E4B1B6801330D4A13600C4B1B68012B71
:104F60000ED10B4B1B68DBB2002B09D04FF0500366
:104F700083F31188BFF36F8FBFF34F8F3B60FEE762
:104F800000BF0C37BD4680BC704700BF0C0000203E
:104F900004ED00E080B483B000AF104B1B68002B21
:104FA00009D14FF0500383F31188BFF36F8FBFF324
:104FB0004F8F7B60FEE7094B1B68013B074A13607C
:104FC000064B1B68002B04D100233B603B6883F336
:104FD000118800BF0C37BD4680BC70470C00002014
:104FE000EFF30980BFF36F8F0D4B1A6820E9F00FC4
:104FF00010602DE908404FF0500080F31188FFF752
:1050000065F84FF0000080F31188BDE8084019688A
:105010000868B0E8F00F80F30988BFF36F8F70471E
:10502000F406002000BF00BF80B582B000AF4FF093
:10503000500383F31188BFF36F8FBFF34F8F7B60F3
:10504000FEF786FF0346002B03D0064B4FF080523D
:105050001A6000233B603B6883F3118800BF083768
:10506000BD4680BD04ED00E080B400AF0A4B0022D5
:105070001A600A4B00221A60094B1B68094AA2FBFE
:1050800003239B09084A013B1360034B07221A6064
:1050900000BFBD4680BC704710E000E018E000E0B3
:1050A00000000020D34D621014E000E080B485B011
:1050B00000AFEFF30583FB60FB680F2B13D9154A94
:1050C000FB6813441B78FB72134B1B78FA7A9A42E5
:1050D00009D24FF0500383F31188BFF36F8FBFF3F2
:1050E0004F8F7B60FEE70D4B1B6803F4E0620C4BB7
:1050F0001B689A4209D94FF0500383F31188BFF31C
:105100006F8FBFF34F8F3B60FEE700BF1437BD4684
:1051100080BC7047F0E300E0200D00200CED00E0C3
:10512000240D002080B58AB000AF78600023FB61B9
:10513000FEF756FE574B1B68002B01D100F00CF90F
:10514000554B1A687B681340002B40F08C807B68BD
:10515000002B1CD008227B6813447B607B6803F023
:105160000703002B13D07B6823F0070308337B6011
:105170007B6803F00703002B09D04FF0500383F343
:105180001188BFF36F8FBFF34F8F7B61FEE77B68A2
:10519000002B68D0414B1B687A689A4263D8404B19
:1051A0003B623F4B1B687B6204E07B6A3B627B6A2D
:1051B0001B687B627B6A5B687A689A4203D97B6A68
:1051C0001B68002BF1D1334B1B687A6A9A424AD094
:1051D0003B6A1B6808221344FB617B6A1A683B6ABE
:1051E0001A607B6A5A687B68D21A08235B009A426D
:1051F0001ED97A6A7B681344BB61BB6903F007035D
:10520000002B09D04FF0500383F31188BFF36F8F49
:10521000BFF34F8F3B61FEE77B6A5A687B68D21A07
:10522000BB695A607B6A7A685A60B86900F0F6F820
:105230001A4B1A687B6A5B68D31A184A1360174BBB
:105240001A68184B1B689A4203D2144B1B68154A04
:1052500013607B6A5A68104B1B681A437B6A5A605A
:105260007B6A00221A60FEF7C9FDFB6903F00703A1
:10527000002B09D04FF0500383F31188BFF36F8FD9
:10528000BFF34F8FFB60FEE7FB6918462837BD462A
:1052900080BD00BF301900203C19002034190020C7
:1052A000281900203819002080B586B000AF78603A
:1052B0007B687B617B68002B46D008235B427A6960
:1052C00013447B617B693B613B695A68204B1B68D7
:1052D0001340002B09D14FF0500383F31188BFF323
:1052E0006F8FBFF34F8FFB60FEE73B691B68002B9E
:1052F00009D04FF0500383F31188BFF36F8FBFF3D2
:105300004F8FBB60FEE73B695A68114B1B68134027
:10531000002B19D03B691B68002B15D13B695A68DB
:105320000B4B1B68DB431A403B695A60FEF758FD84
:105330003B695A68074B1B681344064A1360386977
:1053400000F06CF8FEF75AFD00BF1837BD4680BD6F
:105350003C1900203419002080B485B000AF4FF410
:105360004063BB60274BFB60FB6803F00703002B27
:105370000CD0FB680733FB60FB6823F00703FB607E
:10538000BA68FB68D31A1F4A1344BB60FB687B6092
:105390001D4A7B6813601C4B00225A607B68BA6808
:1053A0001344FB600822FB689B1AFB60FB6823F038
:1053B0000703FB60FB68154A1360144B1B6800224F
:1053C0005A60124B1B6800221A607B683B603B6886
:1053D000FA68D21A3B685A600C4B1A683B681A602C
:1053E0003B685B680A4A13603B685B68094A136064
:1053F000094B4FF000421A6000BF1437BD4680BC15
:10540000704700BF280D0020281900203019002007
:1054100038190020341900203C19002080B485B0D0
:1054200000AF7860274BFB6002E0FB681B68FB6005
:10543000FB681B687A689A42F7D8FB68BB60FB6818
:105440005B68BA6813447A689A4208D1FB685A6864
:105450007B685B681A44FB685A60FB687B607B680A
:10546000BB607B685B68BA681A44FB681B689A4239
:1054700018D1FB681A68144B1B689A420DD07B68E0
:105480005A68FB681B685B681A447B685A60FB6853
:105490001B681A687B681A6008E00B4B1A687B6807
:1054A0001A6003E0FB681A687B681A60FA687B6818
:1054B0009A4202D0FB687A681A6000BF1437BD4672
:1054C00080BC7047281900203019002070B50025D5
:1054D0000C4E0D4CA41BA410A54209D100F02EF8CF
:1054E00000250A4E0A4CA41BA410A54205D170BD8C
:1054F00056F8253098470135EEE756F8253098479D
:105500000135F2E7F0550008F0550008F0550008A5
:10551000F455000810B5431E0A44914200D110BD55
:1055200011F8014B03F8014FF7E703460244934299
:1055300000D1704703F8011BF9E70000F8B500BF80
:10554000F8BC08BC9E467047F8B500BFF8BC08BC64
:045550009E467047BC
:105554007069645461736B00677073506F6C6C0096
:1055640002030405060708090A0B0C0D0E0F1010A0
:105574000102000049444C4500000000546D7220B3
:1055840053766300546D72510000000054550008B6
:105594000000000000000000000000000000000007
:1055A40000020000180000000000000000000000DD
:1055B4005C5500080000000000000000000000002E
:1055C40000000000000200001100000000000000C4
:1055D40000000000000000000000000001020304BD
:0C55E40006070809000000000102030493
:0455F0003501000879
:0455F4001101000899
:1055F8000024F4001000000001000000AAAAAAAAD2
:0400000508000A5D88
:00000001FF
